:020000040000FA
:030000000200C734
:10008300021A5700000080FBE490F1FF788879069C
:100093008002F0A3D8FCD9FA7A867BF79000D67851
:1000A3002579038015E493A3AD82AE838A828B8383
:1000B300F0A3AA82AB838D828E83D8E9D9E7121984
:1000C3000812008675D0007581BF7510FF7511F198
:1000D30002008B00FFFFFFFF54494D454F55543A33
:1000E30020257500524144494F5F53544154453ACA
:1000F300202575004D4F44453A20257500434D4456
:1001030020203A2025730053544154453A20257347
:100113000020202020202043524320202020202084
:10012300200020202020204552524F522120202001
:10013300202000202020526164696F5B25645D20CC
:10014300005061636B657420726563656976650051
:1001530001010100000002000000A08601005741D8
:100163004B4555500057414B4555505F41434B005C
:1001730053455455505F5245510053455455505FB4
:1001830041434B0053455455505F4552520044413F
:1001930054415F52455100444154415F41434B0038
:1001A300455252004E4F4E4500554E4B4E4F574E03
:1001B3000049444C4500434F4E4E454354494E4736
:1001C3000053455455500054585F414354495645D4
:1001D3000052585F41435449564500554E4B4E4FCC
:1001E300574E00008D1C991C9A1C9B1C9B1C01994B
:1001F3001C991C9A1CB01C9B1C02991C991C9A1CD0
:10020300E31C9B1C03991C991C9A1C7D1D9B1C04BD
:10021300991C991C9A1C8C1EA71E000103070E0E25
:100223001C1D0F1F1000000F100000101C060311EF
:100233000C001D1C0E0E0703010000100F00001020
:100243001F0F000C1101061C10000000000000002D
:10025300000000000000000000000000000000009B
:10026300000000000000000000000000000000008B
:100273000000000000000000202043686970636FE5
:100283006E202020200020204343323531302028A7
:10029300257529002020434331313130202825752D
:1002A300290030313233343536373839414243440B
:1002B300454600286E756C6C20706F696E746572AC
:1002C300290030313233343536373839616263646B
:1002D3006566003F3F3F000000807F0000803F00D5
:1002E300000000F9021550B743BA51000020410045
:1002F300E7DB2E0000A040C008C3E096F50808A382
:10030300E096420808A3E096420808A3E096420854
:10031300A2D265D033E5087001D3D00822C3E0969A
:1003230008A3E09608A3E09608A3E09622C008C3BA
:10033300E096F50808A3E096420808A3E096420871
:1003430008A3E09645087001D3D00822080808E600
:1003530030E711120B89120367080808C64480C6E8
:1003630018181822181818E9799EC608CAC608CBA7
:10037300C608CCC6C370207996CACBCC7019798EC7
:10038300CBCC70137986CC700EF9802ACA33CACBD2
:1003930033CBCC33CC331930E7F2CCCBCA33501444
:1003A3007004EA30E00DE4CA3ACACB3BCBCC3CCC78
:1003B300500209C3E913C6CC182313C6CB18C6CA07
:1003C30018C6F92212040720F01430E72B74FFFC3F
:1003D300FBFA747F8022E4FCFBFA7480801AB480F9
:1003E30008BC00F2BB00EF800F50EBF9E4C39AFAAC
:1003F300E49BFBE49CFCE499C6CC18C6CB18C6CAA4
:1004030018C6F922E4C9C608CAC608CBC6D3330343
:1004130008CCC63392F0C3947F402E94184019C978
:10042300B90704CACBCC225025C309CA33CACB337C
:10043300CBCC33CC33D9F422F4600DC9CCC313CB6A
:1004430013CBCA13CAD9F6CC22E4FCFBFA2214FC60
:10045300FBFA22E62618461846184622E7271947CC
:100463001947194722181818E60846087009E6269E
:10047300087005E633F4220822191919E709470918
:100483007009E727097005E733F4220922E60846D5
:1004930008C3134608336002E633F422E709470929
:1004A300C3134709336002E733F422120490602533
:1004B30012049F6020120456700302045F080808A8
:1004C300E76670101819E766700A1819E766700472
:1004D3001819E76622F422120490601C12049F602C
:1004E30017120456700712045F7001D322C0D01292
:1004F300045F7006D0D0B322C32233D0D05014305F
:10050300E0F6C3E7960809E7960809E7960809E7BE
:1005130096B32220E0D5E6970809E6970809E697FF
:100523000809E697B322120490601B12049F601619
:10053300120456700712045F600CB322C0D0120479
:100543005F7005D0D022C32233D0D0501330E0EBFC
:10055300C3E7960809E7960809E7960809E796228C
:1005630020E0E4E6970809E6970809E6970809E614
:10057300972200120490604F12049F6012E7548088
:1005830066F6120468701112045F703B090909F4DE
:10059300F618F618F618F62212047C701512045693
:1005A30008080860EAE6447FF618768018E4F6182F
:1005B300F622120456601612045F7012E4F608F66F
:1005C30008F608E65480F609090918181822EAC043
:1005D300E0EBC0E0ECC0E0EDC0E0E687F0A4FBACEC
:1005E300F008E687F0A42CFCE435F0FA1809E68756
:1005F300F0A42C4B60027401CA35F0FCE433FB0910
:10060300E687F0D2F7A42CCB35F0FC1908E687F087
:10061300A42BCC35F0FBE433FD0819E687F0D2E7D1
:10062300A42C4ACB35F0CD3400FC09E687F0D2E7A1
:10063300A42DCC35F0FDE433FA0918E687F0D2F7A0
:10064300A42CCD35F0CA3400FC08E687F0D2E7D2FB
:10065300F7A42ACC35F07A7E20E70B0ACB33CBCD37
:1006630033CDCC33CC33CB3350147004ED30E00EA8
:10067300D2F1E4CD3DCDCC3CCC3B5005DA05C2F103
:10068300EB547FC63308E63392F0FBE73309E733D5
:10069300C39A502D2B70190C0D4C4D70151806E68E
:1006A30008C333700D20F10AA2F013F6E418800B8F
:1006B3004024E4F630F002768018F618F618F68037
:1006C30024D33B14501074FFA2F013F6187680E481
:1006D30018F618F6800FA2F013F618E63303F6188F
:1006E300ECF618EDF6D0E0FDD0E0FCD0E0FBD0E076
:1006F300FA2212049F6046120490603DE968700874
:10070300F618F618F618F622748067F71207290907
:100713000909748067F722120490601D12049F7008
:1007230005191919801A120468701F12047CC3700A
:1007330003E667331919194007181818220808081F
:1007430074FFF618F618F618F62212047C601712D6
:10075300045F702192F01204567019501720F014A0
:10076300080808090909E7F61819E7F61819E7F65A
:100773001819E7F62212045660E6E869701F0808A4
:10078300E62480F608E436F618547FB47F0CE6546A
:10079300806007F6E418F618F622181822E9C6CC8A
:1007A30008C6CD08C6CE08C6CFC0E0E8C0E0EAC0A0
:1007B300E0EBC0E009E9F809E7FA09E7FBE6F91815
:1007C300E6F8C3EC98ED99EE9AEBC2E7F5F0EFC2C9
:1007D300E795F0500E600CEBCFFBEACEFAE9CDF9CA
:1007E300E8CCF8EAA2E7D2E7FAEB33FB13F5F0EE35
:1007F300A2E7D2E7FEEF33FFC5F013A2E730E6012D
:10080300B313C5F0C3C0E0C0F07F00C39BFB605EC1
:100813009418600F401D14601AD0E023F9D0E0F85B
:100823000208FB8AF0E9486003D2F0E4AFF0FAF97A
:10083300F8803BEB30E40D89F0EA6003D2F0E4AFDB
:10084300F0F9CAF8EB30E30D88F0EF6002D2F0AFB5
:10085300F0E4CAC9F8EB54076014FBC3EA13FAE9DE
:1008630013F9E813F8EF135002D2E0FFDBEDD0E009
:10087300C0E030E739C3E49FFFF5F0EC98FC42F0A9
:10088300ED99FD42F0EE9AFE42F0D0E0F9D0E0F8A7
:10089300E5F0607AE923F9EE20E742D8028067C3E6
:1008A300EF33FFEC33FCED33FDEE33FE80EAEC284F
:1008B300FCED39FDEE3AFED0E023F9D0E0F840023A
:1008C300801BC3EE13FEED13FDEC13FCEF1350027C
:1008D300D2E0FF08B800067F7F74FF802EEF33500D
:1008E300178CF020F00260100CBC000C0DBD00084A
:1008F3000EBE000408E860DFE933E813FFEE2313BC
:10090300FE4F4D4C8008E95480FFE4FEFDFCEE33BE
:10091300EF33F47004FCFD7E80D0E0FBD0E0FAD02E
:10092300E0F8D0E0CFC618CEC618CDC618CCC6F9AD
:100933002212049070041818182212049F700D7468
:10094300FFF61819F61819F61819F622E7548066F7
:10095300F6120456700F12045F70F014F608F608CE
:10096300F608F680D112045F700CF608F60876805C
:1009730008E6447F80EC12047F700C12046B60BFA6
:10098300E65480F6E480BB12046B700519191980D4
:10099300A5E869700C763F18768018F618F6E8F922
:1009A30022E6CDC0E018ECC0E0E633CD33CDD3135F
:1009B300F6E719FCE7191933CC33C3947F400ECD06
:1009C3009D502408E65480F6E418F6800FF4043DA5
:1009D30014501408E6447FF6187680E418F618F6E7
:1009E300D0E0FCD0E0FD22CCD313CCFD18E4C6CB81
:1009F300C0E018E4C6CAC0E00808ED08C633E61331
:100A0300F618E433C675F003C3CA97CA09CB97CB6C
:100A1300199C40047D08802EBD0003020ADD16B632
:100A2300FF050606081618C3CA33CACB33CB33CA2D
:100A330027CA09CB37CB193CC37D08803E187D08F4
:100A430020E75CC633C6CA33CACB33CB33DDF1D51B
:100A5300F0EB30E77BCA97CA09CB974ACB199C4086
:100A63006F4B7025E620E0218066187D08C3CA9786
:100A7300CA09CB97CB199CD3C633C6CA33CACB3367
:100A8300CB3350C9DDE7D5F0E1D3E4C636C608C69B
:100A930036C608C636C608C636C61818188031C307
:100AA300CA97CA09CB97CB199CB34097C633C6CA1A
:100AB30033CACB33CB33DD34D5F02EC6A2E0C640E8
:100AC300C8CA27CA09CB37194A70BECB3CB480B910
:100AD3000808E63308E633601F181818D0E0FAD088
:100AE300E0FBD0E0FCD0E0FD22187D08CA27CA094C
:100AF300CB37CB193CD3808013F618E4B67F11F6BD
:100B030018B6FF0EF618C60470D20808768080CA9D
:100B1300F618F618F680C5E4CFC0E0E4CEC0E0E4F2
:100B2300CDC0E0E4CCC0E075F020E626F608E6335D
:100B3300F608E633F608E633F6181818EC33FCED3E
:100B430033FDEE33FEEF33FFC3EC9709ED9709EE68
:100B53009709EF97191919400FFFEC97FC09ED97C7
:100B6300FD09EE97FE191906D5F0BFECF709EDF76D
:100B730009EEF709EFF7191919D0E0FCD0E0FDD021
:100B8300E0FED0E0FF22181818E4C396F608E496B6
:100B9300F608E496F608E496F6226016080808C6F6
:100BA300C313C618C613C618C613C618C613C6D5AC
:100BB300E0EA22E627F60809E637F60809E637F6FB
:100BC3000809E637F622E026F608A3E036F608A37E
:100BD300E036F608A3E036F622E0F608A3E0F608CE
:100BE300A3E0F608A3E0F622E6F008A3E6F008A3E4
:100BF300E6F008A3E6F022E0FAA3E0FBA3E0FCA3FF
:100C0300E0FD22E0F8A3E0F9A3E0FAA3E0FB22E889
:100C1300F0A3E9F0A3EAF0A3EBF022CAC0E0E6F008
:100C2300A308DAFAD0E0FA22CAC0E0E0A3C582CC76
:100C3300C582C583CDC583F0A3C582CCC582C583D8
:100C4300CDC583DAE6D0E0CA22C3E498F8E499F983
:100C5300120C8D8026C3E49AFAE49BFBE920E7E9B2
:100C6300120C8DE498F8E499F922C3E498F8E49916
:100C7300F9120C8DE498F8E499F9C3E49AFAE49B29
:100C8300FB22EB20E7CFE920E7E0B90010BB000827
:100C9300E88AF084F8AAF022E4FBC8FA22EB702277
:100CA3007B10C833C8C933C9335007C39AC3DBF2B7
:100CB30080069A50012ADBEAC833F4C8C933F4C961
:100CC300FA2275F008E4C833C8C933C933C99AC9CD
:100CD3009B5004C92AC93BD5F0ECFBC833F4C8E4E4
:100CE300C9FA22700422600D18C6C333C608C6337E
:100CF300C6D5E0F41822251010AF08F510400C15E6
:100D0300118008F51040021511D2AF2200C0D02582
:100D13001010AF08F510500C05118008F5105002A3
:100D23000511D2AFD0D0222510F58210AF08F510EF
:100D3300400C15118008F51040021511D2AF851132
:100D43008322C5822510C582C583351110AF07F5EF
:100D5300118582108007F511858210D2AFC58322D9
:100D63002510F582E43511F583222510F8E43511B9
:100D7300F9222510FAE43511FB222510FCE4351184
:100D8300FD22E4732510C582C0E0E51134FFC5835D
:100D9300C0E0E510C3958224F910AF08858311855F
:100DA30082108008858311858210D2AFCEF0A3E52F
:100DB30020F0A37808E608F0A3DEFAEFF0A3E581BC
:100DC30024FBF8E608F0A3E608F0A30808E608F019
:100DD300A3E608F0A315811581D0E0FED0E0F81555
:100DE300811581E8C0E0EEC0E02285118385108281
:100DF300E0A3FEE0A3F5207808E0A3F608DFFAE01D
:100E0300A3FFE0A3C0E0E0A3C0E0E0A3C0E0E0A351
:100E1300C0E010AF08858210858311800885821099
:100E2300858311D2AFD083D08222740280027401F1
:100E3300C0E0F404120D2AD0E0120C1E22740480C8
:100E43000474028000CCC0E0EDC0E0E510C39CCC8C
:100E5300AD1150011D10AF068C108D1180068C1042
:100E63008D11D2AF120C2BD0E0FDD0E0FC22D08349
:100E7300D082E9C0E0E493A3C386F0C5F095F0F90E
:100E830008E493A386F0C5F095F0700BE493A3C335
:100E9300994005E9048002A3E475F002A42582F5D4
:100EA30082E5F03583F583D0E0F9E493A3C0E0E471
:100EB30093C0E022D083D082ECC0E0EDC0E0E493A5
:100EC300A3FCE493A3FDED4C600D120F03EC24FF90
:100ED300FCED34FFFD80EFE493A3FCE493A3FDED6D
:100EE3004C600D120F42EC24FFFCED34FFFD80EF4C
:100EF300D0E0FDD0E0FCE493A3C0E0E493C0E022A3
:100F0300C0E0C3E49396087401939618400FE493EA
:100F130066700808740193661870007019A3A3C360
:100F2300E49396087401939618A3A3400DD0E0D0E0
:100F3300E0D0E0020EF3A3A3A3A3A3A3D0E022C0B7
:100F4300E0C0F088F0E493667008087401936618B3
:100F53007000A8F0A3A3700BD0F0D0E0D0E0D0E0F5
:100F6300020EF3A3A3D0F0D0E022C082C083EA2410
:100F730002F8E43BF988828983E090F708F0EA24D9
:100F8300361211BF90F1FFF08A828B83E090DF006D
:100F9300F08A828B83A3E090DF01F088828983E06B
:100FA30090DF02121196E090DF03121196A3E090F6
:100FB300DF041211A7E090DF051211A7A3E090DF71
:100FC300061211ADE090DF071211ADA3E090DF0828
:100FD3001211B9E090DF091211B9A3E090DF0AF012
:100FE300EA240B1211BF90DF0BF0EA240C1211BF9D
:100FF30090DF0CF0EA240D1211BF90DF0DF0EA240C
:101003000E1211BF90DF0EF0EA240F1211BF90DF12
:101013000FF0EA24101211BF90DF10F0EA2411122E
:1010230011BF90DF11F0EA24121211BF90DF12F00A
:10103300EA24131211BF90DF13F0EA24141211BF34
:1010430090DF14F0EA24151211BF90DF15F0EA24A3
:10105300161211BF90DF16F0EA24171211BF90DFAA
:1010630017F0EA24181211BF90DF18F0EA241912BE
:1010730011BF90DF19F0EA241A1211BF90DF1AF0A2
:10108300EA241B1211BF90DF1BF0EA241C1211BFCC
:1010930090DF1CF0EA241D1211BF90DF1DF0EA243B
:1010A3001E1211BF90DF1EF0EA241F1211BF90DF42
:1010B3001FF0EA24201211BF90DF23F0EA2421124B
:1010C30011BF90DF24F0EA24221211BF90DF25F034
:1010D300EA24231211BF90DF27F0EA24241211BF60
:1010E30090DF28F0EA24251211BF90DF29F0EA24CB
:1010F300261211BF90DF2AF0EA24271211BF90DFD6
:101103002BF0EA24281211BF90DF2CF0EA242912D5
:1011130011BF90DF2DF0EA242A1211BF90DF2EF0C9
:10112300EA242B1211BF90DF2FF0EA242C1211BFF7
:1011330090DF30F0EA242D1211BF90DF31F0EA2462
:101143002E1211BF90DF36F0EA242F1211BF90DF69
:1011530037F0EA24301211BF90DF38F0EA2431125D
:1011630011BF90DF39F0EA24321211BF90DF3AF059
:10117300EA24331211BF90DF3BF0EA24341211BF8B
:1011830090DF3CF0EA24351211BF90DF3DF0D083AD
:10119300D0822212119A2212119E22F08A828B830C
:1011A300A3A3A32212119AA3A3221211B1221211F3
:1011B3009EA3A3A3A3221211B1A3A322F582E43B0E
:1011C300F583E022C082C08390F306E054F0F090F0
:1011D300F3057413F07A0074F2F87410697023E85D
:1011E30090F2FFF0EAA3F0A374DFF0A374D9F0A3A5
:1011F3007420F090F708E090F304F090F306744045
:101203008036742069703290F2FF74DFF0A374D9D2
:10121300F0E8A3F0EAA3F090F708E07B0024025083
:10122300010BEB448090F303F090F708E024029065
:10123300F304F090F3067410F074F2F5D574FFF52F
:10124300D4D083D08222C082C083D2F0A28130F076
:1012530001B3E433F9A2E05008740AA28150107973
:101263000090F307E4F0A2819281D083D08222140C
:1012730070E990F307E070077401F0790180E77972
:101283000080E3C082C08374F8120CF953FEFB5351
:10129300FFFE53F4FB53F5FE53F6FB53F7FE53F7F0
:1012A300BF53F77F8510828511837476F074011222
:1012B3000D63E4F07402120D63740CF07403120DE9
:1012C300637421F07404120D6374A0F07405120D9D
:1012D300637407F014120D637434F07407120D6312
:1012E3007401F07908AA10AB111214BF7C867DF744
:1012F3007A867BF71213047408120D0FD083D08201
:1013030022C082C0838C828D83790012131CAA822F
:10131300AB83790112131C80E374F6120D8774CE2C
:10132300120CF9EAFEEBFF8510828511837476F0C7
:101333007401120D63E4F0E970047480800274C0D8
:10134300C0E07402120D63D0E0F07903AA10AB1170
:101353001214BF7509008510828511837476F074A9
:1013630001120D637440F0750802800612157512A0
:1013730013A7A809121554F96006E8C3941040ECAA
:10138300E509C39410500A79201215751213A7802A
:10139300EFA908AA10AB111214BF7432120D0F7FFC
:1013A30003020DEDA808851082851183E58228F5D7
:1013B30082E43583F583E9F00508050922120D0F50
:1013C3007F01020DED74F8120D8774F6120CF9EA21
:1013D300FEEBFF89088510828511837476F0740112
:1013E300120D63E4F0E9C3944074025007120D63D5
:1013F30074808005120D6374C0F0743F5508444037
:10140300C0E07403120D63D0E0F07904AA10AB11AD
:101413001214BF8510828511837476F07401120D46
:10142300637440F08E828F83E0C0E07402120D6318
:10143300D0E01214A4E0C0E07403120D63D0E012F4
:1014430014A4A3E0C0E07404120D63D0E01214A44A
:10145300A3A3E0C0E07405120D63D0E01214ABE067
:10146300C0E07406120D63D0E01214ABA3E0C0E039
:101473007407120D63D0E01214B9E0C0E0740812CF
:101483000D63D0E01214B9A3E0C0E07409120D6338
:10149300D0E0F0790AAA10AB111214BF740A021338
:1014A300C0F08E828F83A3221214AF22F08E828F1C
:1014B30083A3A3A3A3221214AFA3A32274F5120D33
:1014C30087EAFEEBFF890B750A00A29250FCA2A0EB
:1014D30050F843FE04C292121603790012155E807F
:1014E3002F43FE04C292790112155E121603E5081A
:1014F300C333F5081509E5097027790012155E5302
:10150300FEFB790112155ED3309201B35009050A2F
:10151300E50AC3950B501DA80A121554F508750961
:1015230008790012155E121603E508A2E750B253BC
:10153300FEFB80B2A29240FCA2A050F879001215E3
:101543005E53FEFB121603790112155E7F04020D32
:10155300EDEE28F582E43FF583E022EEC0E0E9708A
:101563000743FF01C2A0800353FFFE121603D0E01E
:10157300FE22749F29C3941A401874BF29C3941A76
:10158300401074E029C39404400874DB29C3941BFE
:101593005005748029F922E924EF605E24FE605D22
:1015A30024EF602F24E4603424E5603324FE6032AA
:1015B30024FE603124BC602124FC601A24E26037DD
:1015C30014602E24EE602D24F3602314601A24EE9D
:1015D30060192279822279DF227981227980227926
:1015E3008A22795422795A22799D22798C22798F01
:1015F30022799C22798B22798E22792022793022BA
:101603007801E8F974FF29F80470F722E9600B43C5
:10161300C640E5BEA2E550FA800D53BEFBE5BEA26F
:10162300E650FA0053C68043BE042274F1120D87BC
:10163300E96059FC8C0875090074077808120CE6F8
:10164300E5093395E0F50AF50BEC75F03BA4FCA82E
:10165300F0E4288C0CF50D3395E0F50EF50F7808C2
:10166300790C120BB6E5C654037808120B9D850856
:101673000C85090D850A0E850B0F90F787780812E4
:101683000BC9E50C450D450E450F70E27F08020DB1
:10169300ED74F1120D8774DE120CF9851082851139
:1016A30083EAF0A3EBF0ECFEEDFF90F803E06004B7
:1016B300C2908002D290A2E0B3E433F0121249E95F
:1016C30060487431120D63120E407C8B7DF77406F3
:1016D300120D75122FCF7404120D0F90DF3BE0F53E
:1016E300087509007808120E2D7C977DF774141283
:1016F3000D63AA82AB83122FCF7402120D0FAC823B
:10170300AD837402120D7512130490DF3BE0641174
:10171300700675E10475E1024386405386FB750844
:1017230000750900750A00750B007C007D00E586D5
:10173300A2E2402E85080C85090D850A0E850B0F44
:1017430090F8057808120BC97431120D63780C12E6
:10175300032050030217DE90F72AE060D17A0102DA
:1017630017E6E5C1C0E01217F2D0E0F00CEC70010F
:101773000DC39404ED940040B58510828511831246
:101783001A4EA3A3E02CF8A3E03DF9E82402FAE4FF
:1017930039FBC3EE9AEF9B5015EEFAEFFB800FE592
:1017A300C1C0E01217F2D0E0F00CEC70010DC3ECF5
:1017B3009AED9B502CE586A2E240E485080C85094E
:1017C3000D850A0E850B0F90F8057808120BC97466
:1017D30031120D63780C12032050DA7AFF7BFF80FD
:1017E300047A007B007422120D0F7F08020DED8531
:1017F3001082851183E02CF8A3E03D8882F58322D3
:1018030074F1120D8774DC120CF985108285118333
:10181300EAF0A3EBF0A3ECF0A3EDF0750800750973
:1018230000750A00750B008073121249E9604B9032
:10183300F1FFE0F50C750D00780C120E2D7CA77DE1
:10184300F77406120D75122FCF7402120D0F90DF6D
:101853003BE0F50C780C120E2D7C977DF774161275
:101863000D63AA82AB83122FCF7402120D0FAC82C9
:10187300AD837404120D7512130490F729E060A967
:10188300E4F090F809780C120BDC85108285118343
:10189300780C1203204005793212162E85080C8528
:1018A300090D850A0E850B0F90F8057808120BC9F0
:1018B300851082851183780C120330400843D601CA
:1018C30075E10380B574240217EAC082C083120F46
:1018D3006D90F1FFE024F0600624F0600C8018792D
:1018E300101211C71218FF800E79201211C7121897
:1018F300FF43D60175E102D083D08222439A01755A
:101903009110D2AF22D29043FE0153F4FED29343FF
:10191300FE0853F4F753FDFD790012160F121286D9
:10192300121EB5121B65790090F897121A4E120D0C
:1019330085E9F508805F90F72AE4F07A007BF2A945
:10194300088E828F83A3A3A3A3A3A3A3A3A3121A83
:101953004E120D85E9F50875D60175E10290F72B56
:10196300E02401F0A3E03400F090F72B120E447C46
:10197300E67DF77A097BF7122FCF7402120D0F7CE5
:10198300F47DF77A197BF7122FCF7C197DF77A094B
:101993007BF7121304E50875F00BA4F8A9F074960D
:1019A30028FE74F839FF90F80D120E407C007D0478
:1019B3007A087BF31216947404120D0F8A0A8B0BA8
:1019C300780A120E71FFFF029819461AD3193919B2
:1019D30090F308E0F9121A938A0A8B0B780A120E15
:1019E3002D7CB07DF77A097BF7122FCF7402120D8D
:1019F3000FA908121BFC8A0A8B0B780A120E2D7C86
:101A0300BA7DF77A197BF7122FCF7402120D0F7C70
:101A1300197DF77A097BF71213047A087BF3121BFB
:101A230017E960147A087BF3A9088E828F83A3A336
:101A3300A3A3A3A3A302192E7CD57DF77AC47BF7B6
:101A4300021995A9088E828F8380E5E0F8A3E0F55B
:101A530083888222C0E0C0D0C082C08353E9EF53A1
:101A63009BFC90F804E06004C2938002D293A2E04E
:101A7300B3E433F090F1FFE06420700590F72A801F
:101A83000390F7297401F0D083D082D0D0D0E03214
:101A9300E914601A14601C14601E14602014602280
:101AA30014602414602614602814602A802D7A118F
:101AB3007BF8227A187BF8227A237BF8227A2D7B13
:101AC300F8227A377BF8227A417BF8227A4A7BF82C
:101AD300227A537BF8227A577BF8227A5C7BF822AE
:101AE300C082C08375BC0075BC007800790080108B
:101AF300EA28F582EB39F583E0F5BD08E8700109C2
:101B0300C3E89CE99D40E9E5BDF9E5BCFAE9FBD0F2
:101B130083D0822274F5120D87EAFEEBFFEE2402D6
:101B2300F508E43FF509850882F583E02404FCA366
:101B3300E03400FD121AE3850882850983E0F8A3E7
:101B4300E0F9EE28F582EF39F583A3A3A3A3E06AB6
:101B53007003A3E06B70047901800279007F0402B3
:101B63000DED53F3FD53FDFD438F02E5F154FE44A8
:101B730002F5F143F33C75C222E5C554E0440BF58D
:101B8300C543868053C4FE43C40253C4FB53C4F706
:101B930053C4EF53C4DF53C4BF53C5DF2274F512DC
:101BA3000D878A088B09ECFEEDFF5386FD121AE3BD
:101BB3008A0A8B0B7A007B00801BE5082AF582E5F5
:101BC300093BF583E0F5C1E586A2E150FA5386FDB2
:101BD3000AEA70010BC3EA9EEB9F40DEE50AF5C1FA
:101BE300E586A2E150FA5386FDE50BF5C1E586A231
:101BF300E150FA5386FD021B60E9600E1460101475
:101C0300601214601414601680197A647BF8227AC7
:101C1300697BF8227A747BF8227A7A7BF8227A84B9
:101C23007BF8227A8E7BF8227C3D7DF77A2D7BF739
:101C33001213047F02020DED74F7120D87EAFE758D
:101C430008107509007808120E2D121BFCEAFCEB34
:101C5300FD7A2D7BF712303B7402120D0F780812B8
:101C63000E2DEEF9121BFCEAFCEBFD7A3D7BF7121D
:101C7300303B7402120D0F80AF74F8120D87EAFE29
:101C8300121C3BEEF97F01020DEDEEC0E07A01126A
:101C93001C7CD0E0FE22222222C082C08374FC126C
:101CA3000CF98510828511837402021D5C74F8128D
:101CB3000D87E9FE8A828B83E064017002A3E070E2
:101CC3000A121C9C7A02EEF9121C7C80B8C082C0F6
:101CD3008374FC120CF98510828511837404807956
:101CE30074F7120D87E9FE8A828B83E0F508A3E07F
:101CF300F5097808120E71010004481D451D481DA1
:101D0300091D481D3E1D8A828B83A3A3A3A37C4D7B
:101D13007DF77438120C2B90F78504F07A4D7BF71E
:101D23001218CD121CD090F783E0641070047A036C
:101D330080027A04EEF9121C7C800A90F785E4F0A5
:101D43008003121CB0021C36C082C08374FC120CC8
:101D5300F98510828511837407F0A3E4F0740212ED
:101D63000D63E4F0A3F07C04FDAA10AB11121BA0D9
:101D73007404120D0FD083D0822274F5120D87895B
:101D830008EAFEEBFF8E828F83E0F50AA3E0F50BF2
:101D9300780A120EB7000002000100F91D0600A622
:101DA3001DFC1D780079008015E0C0E0740028F563
:101DB3008274F239F583D0E0F008E8700109EE2867
:101DC300FAEF39FBEA2404FA50010B8E828F83A3C6
:101DD300A3E024FCFCA3E034FFFDC3E89CE99D8A57
:101DE300828B8340C4120BFA121803EEFAEFFB1234
:101DF3001D4BA9088003121CB07F04020DEDC082A5
:101E0300C0837582007583FF120D458510827406A9
:101E1300F0A3E4F090F708E079002402F8500109F8
:101E23007402120D63E8F0A3E9F0780079008027CB
:101E3300EA28F582EB39F583E0C0E085108285114D
:101E430083E58228F582E58339F583A3A3A3A3D091
:101E5300E0F008E87001097402120D63E0FCA3E0EE
:101E6300FDC3E89CE99D40C87402120D63E024049D
:101E7300FCA3E03400FDAA10AB11121BA075820075
:101E8300758301120D45021D7874F8120D878A823D
:101E93008B83E064017002A3E0700675E105121CF8
:101EA300B0021C88EEC0E0E9FE121E01EEF9D0E09C
:101EB300FE2274F7120D8774A2120CF990F8CD74F8
:101EC3002E120D7D7430120C2B90F8FDAC10AD1159
:101ED3007420120C2B90F91D7420120D7D740E12B8
:101EE3000C2B7E00EE33333354F82408F9EEF50857
:101EF30075090074037808120CE6742E120D63E55D
:101F0300822508FAE5833509FB1213C80EEEC39444
:101F13000640D18510828511837401F0120D63741C
:101F230002F0120D637403F07C2B7DF9120D63AA8A
:101F330082AB8312303B7410120D637404F074117E
:101F4300120D637405F07412120D637406F07413AA
:101F5300120D637420F090DF36E06481700C121F61
:101F6300B4120E2D7C397DF9800FE06401701712D5
:101F73001FB4120E2D7C477DF97422120D75122F9A
:101F8300CF7402120D0F7420120D7D7413120D63A2
:101F9300AA82AB8312303B7410120D63AC82AD8303
:101FA300AA10AB11121304745E120D0F7F02020DFF
:101FB300EDA3E0F50875090078082274F1120D8786
:101FC30074FD120CF97402120D63E9F08A088B098F
:101FD3008C0A8D0B7414120D63E0FEA3E0FF8510D1
:101FE30082851183E4F0A3F0EE2403FAE43FFB8E31
:101FF300828F83A3AC82AD8390F98A780C120BDCB9
:102003007808790C1204AE70188E828F837469F08D
:102013008C828D83746EF08E828F83A3A37466800B
:102023001F780879081204AE601A8E828F83746E4B
:10203300F08C828D837461F08E828F83A3A3746E80
:10204300F002245190F98E780C120BDC7808790C8D
:102053001204DA50030220FA90F992780C120BDC86
:102063007808790C1204AE600302214E7416120D27
:1020730063E07003022190851082851183C082C0C2
:10208300837412120D63122E7DD083D08212248C9E
:10209300502E851082851183C3E094FCA3E094FF46
:1020A300A2D265D03340197402120D63E4122F5F7C
:1020B300122E7D7412120D63C3E098F0A3E099F021
:1020C3007412120D631224C37417120D63E07003AC
:1020D30002218D7416120D63E402218F90F9967814
:1020E3000C120BDC7808790C1209348510828511E7
:1020F30083E0240A122F7990F99A780C120BDC787A
:1021030008790C1204DA40D490F99E780C120BDC97
:102113007808790C1204DA400302206F90F99E7854
:102123000C120BDC7808790C120934122F7080D84A
:1021330090F996780C120BDC7808790C12057585EA
:102143001082851183E024F61224C690F9A2780C3C
:10215300120BDC7808790C12052940D490F98E789B
:102163000C120BDC7808790C120529400302206F4E
:1021730090F99E780C120BDC7808790C12057585A2
:1021830010828511831224C380D27401F074021269
:102193000D63E060047A00807F122498507E8E8263
:1021A3008F837430F0ECFEEDFF7412120D63E0FCCC
:1021B300A3E0FDEC4D70087417120D63E0600B8E05
:1021C300828F83742EF0A30EAF837A007B0080117D
:1021D3008E828F8374301224BC7412120D63122406
:1021E300C3EA24FF1AEB34FFFB85108285118312A7
:1021F3002480500B7412120D63122EA34970D185E3
:10220300108285118374FFC39CF874FF9DF9122417
:102213008C50030223637A017B008071122471FACC
:10222300E499FB806885080C85090D850A0E850BEA
:102233000F780C1203C7AC0CE50D3395E0F50EF5E2
:102243000F780C12034F7808790C1206F590F99E5B
:10225300780C120BDC7808790C120575EC1224B695
:10226300EAF8EBF9E824010AE439FBE849701E7443
:1022730012120D63122EA34970087417120D63E036
:10228300600B8E828F83742EF0A30EAF83741212B1
:102293000D63122480508E90F9A6780C120BDC7813
:1022A30008790C1204DA40030223637C01EE24FF55
:1022B300F8EF34FFF97414120D63E0F508A3E0F5A9
:1022C3000988828983E0642E6010E02CF0643A7000
:1022D300077430F07C0180027C00E8FAE9FBEA2411
:1022E300FF18EB34FFF9C3E5089AE5099B40D2ECEC
:1022F300A2E0506C7402120D63E0603BEEF8EF80D5
:102303000DEC88828983F0E824FF18E934FFF9C3D0
:10231300E50898E50999501A12245BE0FC742E6CC9
:1023230070DFE824FEF582E934FFF583122468F9AF
:1023330080D5122F70801E8E828F83A3AE82AF83CF
:10234300EEF8EF800612245B122468F9C3E50898BF
:10235300E5099940F07414120D63122EB27431F032
:102363007416120D63E07005801C1EAF83EE24FF0C
:10237300F582EF34FFF583E0F874306860EC742E77
:102383006870031EAF837402120D63E070030224AE
:102393004D8E828F83F0EE2402E43FF9A3AA82AB31
:1023A300831224988A828B835012742DF00E0EE9C7
:1023B300FF122471F8E4991224A98007742BF00EFC
:1023C3000EE9FF7C007D00EE240AFE50010F0CECA9
:1023D30070010D122478120C85EA1224B6122478A7
:1023E300120C851224AA851082851183E04970DEC0
:1023F300C3EC9402ED122E5240D4ECFAEDFBC3E48D
:102403009CF8E49DF9EE28F582EF39F583E0C0E00E
:10241300C3E49AF8E49BF9EE28F8EF39F9E82CF8CD
:10242300E93DF9E824F5F582E934FFF583D0E0F0DE
:10243300EC24FF1CED34FFFDC3EC9401ED122E528E
:1024430050BCEE24F6FEEF34FFFFEEFAEFFB74030D
:10245300120D0F7F08020DEDE824FFFAE934FFFBAC
:102463008A828B8322E088828983F018EB22122FE1
:102473000BC3E49822122F0B7A0A7B0022C3E09A43
:10248300A3E09BA2D265D03322C3E098A3E099A234
:10249300D265D03322851082851183C3A3E0122E27
:1024A3005622A3E03400F9851082851183E8F0A356
:1024B300E9F02224308E828F83F0A3AE82AF832291
:1024C300E024FFF0A3E034FFF02274F1120D8774CF
:1024D300B2120CF9851082851183122F1F74131207
:1024E3000D63ECF0A3EDF0740B120D63E4F0A38025
:1024F30020745D120D63122E937413120D63122E4A
:10250300B2120D85740B120D63E02401F0A3E034C5
:1025130000F0122EE0F9851082851183E02401FA80
:10252300A3E03400FB851082851183122F1F7425CD
:10253300696010E970BB740B120D63122E93744E15
:10254300022453122EE064257019851082851183AD
:10255300E02401081224A5745D120D63122E9379F1
:10256300258096740A120D63E4F07409120D63E476
:10257300F07408120D63E4F07405120D63E4F07453
:102583001C120D6D7402120D631224B0741A120D15
:10259300637455F0A374F980197405120D63E07028
:1025A300077405120D63EAF0851082851183E8F044
:1025B300A3E9122F80122EDBFA24E060DC24FD60F5
:1025C3001724F860DC24FE600624FD600F8011747C
:1025D30008120D63E00480CF740980F5740A80F15A
:1025E300851082851183122EDB642A705C745F125E
:1025F3000D63122EDBFAA3E0FB8A828B83E0FCA33C
:10260300E0FD7406120D63ECF0A3EDF0EA2402FA88
:1026130050010B745F120D63122F177406120D63B2
:1026230012249E501F7406120D63122E93C3E49A54
:10263300FAE49BFB7406120D63122F1F7408120D2C
:1026430063E004F01224AA80427406120D63E4F0DE
:10265300A3802C7406120D63122EA375F00AA4F83E
:10266300ABF075F00AE9A42BF9E82AF8E439F9E8A4
:1026730024D0F8E934FFF97406120D63122F9B126C
:102683002F58FA74D02AC3940A40C87408120D63F1
:10269300E06007740A120D63E4F0122EE0642E70FA
:1026A3007B851082851183E0240108122EA8E8F0AF
:1026B300A3E9122F58642A7027745F120D63122E38
:1026C300EAF988828983E0FEA3E0FFE82402F85058
:1026D3000109745F120D63122ECA122F9BF0804002
:1026E3007E007F00122EE0F874D028C3940A503085
:1026F300EE75F00AA4FEA9F075F00AEFA429FFEE27
:1027030028F8E43FF9E824D0FEE934FFFF8510827E
:10271300851183E02401F81224A580C87EFF7FFF82
:102723007A00851082851183E02401F8122EA8E037
:10273300FBA3E0F5838B82E024B4600824E4600605
:1027430024FC70057A011224AA122EE0C0E074045E
:10275300120D63D0E0122F801224B07404120D63A3
:10276300E07003022CF224BB7003022BC724FE701B
:1027730003022BAC24EF700302293124F57003020A
:10278300282F1470030229CE147003022BC7147070
:1027930003022BC5147003022BAC24FE7003022921
:1027A300CE24FB602414700302291514700302293C
:1027B3003124FD700302286F24FE700302293124A3
:1027C300FD7003022925022CFE745F120D63122E85
:1027D300FFE8FCE9FDE5082402F50850020509EAD3
:1027E300A2E0740B502F120D63122E7D3395E0FA85
:1027F3008C828D83E8FCE9FDEAFEECF0A3EDF0A307
:10280300EEF0A3F0745F120D63122EB2E508F0A38D
:10281300E509022514120D63122E7D8C828D83121D
:1028230024B0745F120D63122ECA80E0745F120D20
:1028330063122EEAF5838882E0C0E0741C120D63F4
:10284300D0E0F0745F120D63122EE62402F8A3E0C9
:102853003400F9745F120D63122ECA1224B0741D72
:10286300120D63A882A983740D02290B745F120DE4
:1028730063122EFFE5082402FAE43509FB745F12A4
:102883000D63122F177402120D631224B0E84970FE
:102893000C7402120D637466F0A374F9F0122E50D7
:1028A30050047E107F27750800750900800805080D
:1028B300E508700205097402120D63122E7D8882E9
:1028C3008983A3AA82AB837402120D63122F1F881C
:1028D300828983E0600BC3E5089EE509122E35402B
:1028E300CD7402120D63122E81740D120D63122426
:1028F300B0C3E49508F8E49509F9740D120D63E08B
:1029030028F8A3E039F97402120D63E8F0A3E90291
:102913002D157409120D63E06008EE4F70047E01FB
:102923007F00741A120D637475F0A374F9F0745F69
:10293300120D63122EF17404120D63E0647070348F
:10294300850882850983122E93740F120D63122F4B
:102953004DE508122E46120D63122ECA1224B074CE
:1029630016120D637410122F51A3F07405120D6328
:10297300E4022A43EAA2E0E5085016122E3C120DA7
:1029830063122F35120C06740F120D63120C128092
:1029930019122E46120D63122F48F8A3E0F9E8FA34
:1029A300E9FB740F120D63122F4D7404120D63E0D3
:1029B300646F70097416120D63740880A9E064755E
:1029C300709D7416120D63740A809B745F120D63FD
:1029D300122EF1EAA2E0E5085010122E3C120D630C
:1029E300122F357808120BDC8016122E46120D6357
:1029F300122F48F508A3E0F5093395E0F50AF50B26
:102A0300740F120D637808120BEB90F99278081289
:102A130002FA40217405120D63742DF0740F120D28
:102A2300637808120BDC7808120B8C740F120D6399
:102A33007808120BEB7416120D63740A122F51A34C
:102A4300F0744D120D63A882A9837402120D6312F0
:102A530024B0740D120D63122F2D120D63120C0688
:102A6300E8494A4B6004D2008009C200EE4F70036C
:102A7300022B227402120D63122EAC120D63122F5D
:102A83002D120D63780C120BDC7416120D6378088B
:102A9300120BDC780C7908120B1A741A120D63E00E
:102AA3002508F8A3E035098882F583E0C0E07402C5
:102AB300120D63122EB2D0E0F0740F120D63780C76
:102AC300120BDC7416120D637808120BDC780C7988
:102AD30008120B1A740F120D63780C120BEB740FA0
:102AE300120D63120C06E8494A4B7087122E5050A0
:102AF3002E740A120D63E060267405120D63E06004
:102B030004D2F08002C2F07406120D63122E6F809D
:102B13000E7402120D63122F25120D63122EC3744D
:102B230002120D63122E81744D120D63C082C08395
:102B33007402120D63122E93D083D082E582C39A5E
:102B4300FAE5839BFBC3EA9EEB122E3540C374095F
:102B5300120D63E07003022D16A2004003022D162E
:102B63007404120D63E064786005E064587010E04B
:102B730088828983F0E824FF18E934FFF98017E09D
:102B8300646F6003022D167402120D63122EDB6450
:102B9300307003022D167402120D63122F25120DCD
:102BA30063122EB27430022D157415120D63740165
:102BB300F07404120D63E024FEF0EE4F700D7E01FD
:102BC3008010E4F07415120D63E4F0122E505004DB
:102BD3007E067F00745F120D63122EF1850882F565
:102BE30083780C120BDCE508122E3C120D63122EB7
:102BF300CA122F2D120D63780C120BEB90F99278F9
:102C030008120BDC780C790812052950227405127E
:102C13000D63742DF0740F120D637808120BDCE54D
:102C23000BB2E7F50B740F120D637808120BEB74FC
:102C330006120D63741C120D6D8909E028F8A3E0D8
:102C43003509F97402120D631224B07409120D636D
:102C5300E0F5087808120E317416120D63E0F508DA
:102C63007808120E317404120D63120E448E088F0D
:102C7300097808120E2D740A120D63E0F974151207
:102C83000D63120BFA121FBE7406120D0F740D1290
:102C93000D63122F1F740A120D63E0607674051220
:102CA3000D63E06004D2F08002C2F07406120D637B
:102CB300122E6F740D120D63C082C0837402120D45
:102CC30063122E7DD083D082E0C398F8A3E099F9F4
:102CD300C3E89EE9122E35503A7402120D63122E88
:102CE300AC120D63122F25120D63122EC380C485FF
:102CF3001082851183122E8A1224A97402120D6385
:102D03007486F0A374F9F0740D120D637489F0A343
:102D130074F9F0740D120D63C082C0837402120D36
:102D230063122E7DD083D082E0C398FEA3E099FF87
:102D33007406120D63C3E09EA3E0122E355008758E
:102D4300080075090080297405120D63E06004D240
:102D5300F08002C2F07406120D63E0C39EF8A3E094
:102D63009FF9A2F0E433FAE89AF508E99400F5092B
:102D73007408120D63E070208019745D120D6312E4
:102D83002E99120D63122EB2120D85740B120D6360
:102D9300122F76122E5E50E27405120D63E0605618
:102DA300745D120D63122E937405120D63E0F974B2
:102DB30013120D63122EB2120D858032745D120D43
:102DC30063122E937402120D63122EE6F97413121A
:102DD3000D63122EB2120D857402120D63E02401ED
:102DE300F8A3E03400F97402120D631224B0740BDB
:102DF300120D63122F76EE24FF1EEF34FFFFC31272
:102E03002E5250B87408120D63E070030225151298
:102E13002E5E5003022515745D120D63122E991256
:102E23000D63122EB2120D85740B120D63122F76E1
:102E330080DD9FA2D265D033222404F8E43509F95A
:102E4300745F222402F8E43509F9745F22C3EF1298
:102E53002E56229400A2D265D03322E50824FFF532
:102E630008E50934FFF509C3122E5622A2F0E43314
:102E7300F8E098FEA3E09400FF22122F1122122EF5
:102E83008522122E8AF922E024FFF8A3E034FF22E0
:102E9300E0FAA3E0FB22E0FAA3E0FB79207413221B
:102EA300122F11E822122F8F22122E857402221262
:102EB3002EB622122EBA22E0F8A3E0F583888222EE
:102EC300122EB67430F022122ECE22122ED222E00F
:102ED300FAA3E0F5838A8222122ECEE022851082A5
:102EE300851183122F6722122F67F8A3E022122E77
:102EF300F522122F6BF508A3E0F50922122EF585B2
:102F03000882F583122F1122851082851183E0F840
:102F1300A3E0F922E0FCA3E0F5838C82EAF0A3EBC3
:102F2300F022E8F0A3E9F0740222E8F0A3E9F074D8
:102F33000F22122F3922122ED2E8F0A3E9F08508CE
:102F43008285098322122F39E022EAF0A3EBF0A352
:102F5300E4F0A3F022122F5F122F6722F085108274
:102F630085118322122F6B22122EBAE02285108242
:102F7300851183E02401F0A3E03400F022122F84B2
:102F830022122F5FE02401F8122F8F22A3E03400D6
:102F9300F985108285118322E8F0A3E9122F84E8D2
:102FA300F0A3E922C082C0838A828B83123032E984
:102FB300F08A828B83E02401FCA3E03400FD8A8243
:102FC3008B83ECF0A3EDF0D083D0822274F7120D43
:102FD3008774FC120CF97402120D63EAF0A3EBF090
:102FE300ECFAEDFB740D120D6D851082851183E8EB
:102FF300F0A3E9F0A810A911880889097808120E2E
:103003002D7404120D6D880889097808120E2D7C21
:10301300A77D2F1224CD7404120D0F7402120D63B9
:10302300123032E4F07404120D0F7F02020DEDE052
:10303300F8A3E0F58388822274F8120D87EAF8EB8F
:10304300F98C828D83E0FEA3AC82AD838A828B836D
:10305300F0A3AA82AB8370E9E8FAE9FB7F01020DD2
:01306300ED7F
:04000005000000C730
:00000001FF
