:020000040000FA
:030000000200C734
:10008300021A7100000080FBE490F1FF786D79059E
:100093008002F0A3D8FCD9FA7A6B7BF69000D6786D
:1000A300EC79028015E493A3AD82AE838A828B83BD
:1000B300F0A3AA82AB838D828E83D8E9D9E7121984
:1000C300D112008675D0007581BF7510FF7511F1CF
:1000D30002008B00FFFFFFFF54494D454F55543A33
:1000E30020257500524144494F5F53544154453ACA
:1000F3002025750020202020202052582020202059
:100103002020200042414420524144494F2053546F
:100113004154450020202020202054582020202016
:1001230020202020002564202F202575002020205A
:100133002020204352432020202020202000202064
:100143002020204552524F52212020202020000100
:100153000101000000020000001027000049444C88
:100163004500434F4E4E454354494E470053455473
:1001730055500054585F4143544956450052585F07
:1001830041435449564500554E4B4E4F574E002060
:1001930042414420444154412053495A45200020C0
:1001A300256420213D202564200000491C551C5650
:1001B3001C571C571C01551C551C561C6C1C571CEA
:1001C30002551C551C561CA01C571C03551C551CC2
:1001D300561C4D1D571C04551C551C561CED1E1159
:1001E3001F000103070E0E1C1D0F1F1000000F1030
:1001F3000000101C0603110C001D1C0E0E0703014A
:100203000000100F0000101F0F000C1101061C103E
:1002130000000000000000000000000000000000DB
:1002230000000000000000000000000000000000CB
:10023300000000000000000000000000000000209B
:100243002043686970636F6E2020202000202043C4
:10025300433235313020282575290020204343318E
:100263003131302028257529003031323334353689
:1002730037383941424344454600286E756C6C203B
:10028300706F696E746572290030313233343536DC
:10029300373839616263646566003F3F3F000000A1
:1002A300807F0000803F00000000F9021550B74333
:1002B300BA510000204100E7DB2E0000A040E066B9
:1002C300701008A3E066700A08A3E066700408A330
:1002D300E06622C008C3E096F50808A3E09642084A
:1002E30008A3E096420808A3E0964208A2D265D08C
:1002F30033E5087001D3D00822C3E09608A3E09643
:1003030008A3E09608A3E09622C008C3E096F50888
:1003130008A3E096420808A3E096420808A3E096E3
:1003230045087001D3D00822080808E630E7111207
:100333000B65120343080808C64480C61818182220
:10034300181818E9799EC608CAC608CBC608CCC6D1
:10035300C370207996CACBCC7019798ECBCC70132D
:100363007986CC700EF9802ACA33CACB33CBCC330F
:10037300CC331930E7F2CCCBCA3350147004EA30D3
:10038300E00DE4CA3ACACB3BCBCC3CCC500209C308
:10039300E913C6CC182313C6CB18C6CA18C6F9224C
:1003A3001203E320F01430E72B74FFFCFBFA747F95
:1003B3008022E4FCFBFA7480801AB48008BC00F24B
:1003C300BB00EF800F50EBF9E4C39AFAE49BFBE424
:1003D3009CFCE499C6CC18C6CB18C6CA18C6F92229
:1003E300E4C9C608CAC608CBC6D3330308CCC63390
:1003F30092F0C3947F402E94184019C9B90704CAD8
:10040300CBCC225025C309CA33CACB33CBCC33CC94
:1004130033D9F422F4600DC9CCC313CB13CBCA1365
:10042300CAD9F6CC22E4FCFBFA2214FCFBFA22E63E
:100433002618461846184622E72719471947194729
:1004430022181818E60846087009E626087005E61B
:1004530033F4220822191919E70947097009E72714
:10046300097005E733F4220922E6084608C3134658
:1004730008336002E633F422E7094709C313470947
:10048300336002E733F42212046C602512047B60AC
:1004930020120432700302043B080808E766701058
:1004A3001819E766700A1819E76670041819E766E1
:1004B30022F42212046C601C12047B6017120432B3
:1004C300700712043B7001D322C0D012043B7006A4
:1004D300D0D0B322C32233D0D0501430E0F6C3E7D8
:1004E300960809E7960809E7960809E796B32220D4
:1004F300E0D5E6970809E6970809E6970809E6971D
:10050300B32212046C601B12047B60161204327057
:100513000712043B600CB322C0D012043B7005D019
:10052300D022C32233D0D0501330E0EBC3E7960878
:1005330009E7960809E7960809E7962220E0E4E62A
:10054300970809E6970809E6970809E69722001233
:10055300046C604F12047B6012E7548066F6120449
:1005630044701112043B703B090909F4F618F6189C
:10057300F618F6221204587015120432080808609F
:10058300EAE6447FF618768018E4F618F622120499
:1005930032601612043B7012E4F608F608F608E619
:1005A3005480F609090918181822EAC0E0EBC0E0E4
:1005B300ECC0E0EDC0E0E687F0A4FBACF008E68712
:1005C300F0A42CFCE435F0FA1809E687F0A42C4BD0
:1005D30060027401CA35F0FCE433FB09E687F0D20C
:1005E300F7A42CCB35F0FC1908E687F0A42BCC3507
:1005F300F0FBE433FD0819E687F0D2E7A42C4ACBDD
:1006030035F0CD3400FC09E687F0D2E7A42DCC35D4
:10061300F0FDE433FA0918E687F0D2F7A42CCD35C0
:10062300F0CA3400FC08E687F0D2E7D2F7A42ACC5C
:1006330035F07A7E20E70B0ACB33CBCD33CDCC33E9
:10064300CC33CB3350147004ED30E00ED2F1E4CD53
:100653003DCDCC3CCC3B5005DA05C2F1EB547FC613
:100663003308E63392F0FBE73309E733C39A502D9F
:100673002B70190C0D4C4D70151806E608C333701A
:100683000D20F10AA2F013F6E418800B4024E4F6DF
:1006930030F002768018F618F618F68024D33B144F
:1006A300501074FFA2F013F6187680E418F618F6CB
:1006B300800FA2F013F618E63303F618ECF618EDE4
:1006C300F6D0E0FDD0E0FCD0E0FBD0E0FA2212044B
:1006D3007B604612046C603DE9687008F618F618F2
:1006E300F618F622748067F7120705090909748062
:1006F30067F72212046C601D12047B700519191927
:10070300801A120444701F120458C37003E667333F
:1007130019191940071818182208080874FFF61841
:10072300F618F618F622120458601712043B7021CB
:1007330092F01204327019501720F01408080809B7
:100743000909E7F61819E7F61819E7F61819E7F68D
:100753002212043260E6E869701F0808E62480F676
:1007630008E436F618547FB47F0CE654806007F62D
:10077300E418F618F622181822E9C6CC08C6CD08E4
:10078300C6CE08C6CFC0E0E8C0E0EAC0E0EBC0E0F8
:1007930009E9F809E7FA09E7FBE6F918E6F8C3EC13
:1007A30098ED99EE9AEBC2E7F5F0EFC2E795F050BA
:1007B3000E600CEBCFFBEACEFAE9CDF9E8CCF8EA10
:1007C300A2E7D2E7FAEB33FB13F5F0EEA2E7D2E7A9
:1007D300FEEF33FFC5F013A2E730E601B313C5F014
:1007E300C3C0E0C0F07F00C39BFB605E9418600F42
:1007F300401D14601AD0E023F9D0E0F80208D78A2C
:10080300F0E9486003D2F0E4AFF0FAF9F8803BEB8B
:1008130030E40D89F0EA6003D2F0E4AFF0F9CAF8EE
:10082300EB30E30D88F0EF6002D2F0AFF0E4CAC919
:10083300F8EB54076014FBC3EA13FAE913F9E8135E
:10084300F8EF135002D2E0FFDBEDD0E0C0E030E779
:1008530039C3E49FFFF5F0EC98FC42F0ED99FD42BB
:10086300F0EE9AFE42F0D0E0F9D0E0F8E5F0607ADD
:10087300E923F9EE20E742D8028067C3EF33FFECA8
:1008830033FCED33FDEE33FE80EAEC28FCED39FD5D
:10089300EE3AFED0E023F9D0E0F84002801BC3EE2D
:1008A30013FEED13FDEC13FCEF135002D2E0FF082F
:1008B300B800067F7F74FF802EEF3350178CF02033
:1008C300F00260100CBC000C0DBD00080EBE00044D
:1008D30008E860DFE933E813FFEE2313FE4F4D4CC6
:1008E3008008E95480FFE4FEFDFCEE33EF33F4703F
:1008F30004FCFD7E80D0E0FBD0E0FAD0E0F8D0E04D
:10090300CFC618CEC618CDC618CCC6F92212046CB1
:1009130070041818182212047B700D74FFF618194E
:10092300F61819F61819F622E7548066F6120432FF
:10093300700F12043B70F014F608F608F608F68000
:10094300D112043B700CF608F608768008E6447F63
:1009530080EC12045B700C12044760BFE65480F60F
:10096300E480BB120447700519191980A5E8697062
:100973000C763F18768018F618F6E8F922E6CDC013
:10098300E018ECC0E0E633CD33CDD313F6E719FC22
:10099300E7191933CC33C3947F400ECD9D502408FF
:1009A300E65480F6E418F6800FF4043D145014085E
:1009B300E6447FF6187680E418F618F6D0E0FCD00B
:1009C300E0FD22CCD313CCFD18E4C6CBC0E018E481
:1009D300C6CAC0E00808ED08C633E613F618E433C8
:1009E300C675F003C3CA97CA09CB97CB199C4004B9
:1009F3007D08802EBD0003020AB916B6FF05060660
:100A0300081618C3CA33CACB33CB33CA27CA09CB98
:100A130037CB193CC37D08803E187D0820E75CC6B0
:100A230033C6CA33CACB33CB33DDF1D5F0EB30E772
:100A33007BCA97CA09CB974ACB199C406F4B702549
:100A4300E620E0218066187D08C3CA97CA09CB97C0
:100A5300CB199CD3C633C6CA33CACB33CB3350C9A5
:100A6300DDE7D5F0E1D3E4C636C608C636C608C608
:100A730036C608C636C61818188031C3CA97CA09BD
:100A8300CB97CB199CB34097C633C6CA33CACB3373
:100A9300CB33DD34D5F02EC6A2E0C640C8CA27CA80
:100AA30009CB37194A70BECB3CB480B90808E6338A
:100AB30008E633601F181818D0E0FAD0E0FBD0E046
:100AC300FCD0E0FD22187D08CA27CA09CB37CB1911
:100AD3003CD3808013F618E4B67F11F618B6FF0EE8
:100AE300F618C60470D20808768080CAF618F6187D
:100AF300F680C5E4CFC0E0E4CEC0E0E4CDC0E0E4DE
:100B0300CCC0E075F020E626F608E633F608E633B7
:100B1300F608E633F6181818EC33FCED33FDEE3324
:100B2300FEEF33FFC3EC9709ED9709EE9709EF97B3
:100B3300191919400FFFEC97FC09ED97FD09EE9782
:100B4300FE191906D5F0BFECF709EDF709EEF70921
:100B5300EFF7191919D0E0FCD0E0FDD0E0FED0E0AA
:100B6300FF22181818E4C396F608E496F608E496EC
:100B7300F608E496F6226016080808C6C313C618DA
:100B8300C613C618C613C618C613C6D5E0EA22E6AE
:100B930027F60809E637F60809E637F60809E637BF
:100BA300F622E026F608A3E036F608A3E036F608B8
:100BB300A3E036F622E0F608A3E0F608A3E0F60881
:100BC300A3E0F622E6F008A3E6F008A3E6F008A304
:100BD300E6F022E0FAA3E0FBA3E0FCA3E0FD22E0C1
:100BE300F8A3E0F9A3E0FAA3E0FB22E8F0A3E9F01D
:100BF300A3EAF0A3EBF022CAC0E0E6F0A308DAFA16
:100C0300D0E0FA22CAC0E0E0A3C582CCC582C58386
:100C1300CDC583F0A3C582CCC582C583CDC583DA98
:100C2300E6D0E0CA22C3E498F8E499F9120C69808B
:100C330026C3E49AFAE49BFBE920E7E9120C69E492
:100C430098F8E499F922C3E498F8E499F9120C6945
:100C5300E498F8E499F9C3E49AFAE49BFB22EB20C5
:100C6300E7CFE920E7E0B90010BB0008E88AF08489
:100C7300F8AAF022E4FBC8FA22EB70227B10C833F7
:100C8300C8C933C9335007C39AC3DBF280069A50ED
:100C9300012ADBEAC833F4C8C933F4C9FA2275F070
:100CA30008E4C833C8C933C933C99AC99B5004C9B6
:100CB3002AC93BD5F0ECFBC833F4C8E4C9FA227067
:100CC3000422600D18C6C333C608C633C6D5E0F484
:100CD3001822251010AF08F510400C15118008F5E7
:100CE3001040021511D2AF2200C0D0251010AF085A
:100CF300F510500C05118008F51050020511D2AF04
:100D0300D0D0222510F58210AF08F510400C151134
:100D13008008F51040021511D2AF85118322C582D8
:100D23002510C582C583351110AF07F511858210D3
:100D33008007F511858210D2AFC583222510F58275
:100D4300E43511F583222510F8E43511F922251035
:100D5300FAE43511FB222510FCE43511FD22E4737E
:100D63002510C582C0E0E51134FFC583C0E0E5105E
:100D7300C3958224F910AF088583118582108008FA
:100D8300858311858210D2AFCEF0A3E520F0A3783E
:100D930008E608F0A3DEFAEFF0A3E58124FBF8E60A
:100DA30008F0A3E608F0A30808E608F0A3E608F0B5
:100DB300A315811581D0E0FED0E0F815811581E8F7
:100DC300C0E0EEC0E022851183851082E0A3FEE03F
:100DD300A3F5207808E0A3F608DFFAE0A3FFE0A379
:100DE300C0E0E0A3C0E0E0A3C0E0E0A3C0E010AF38
:100DF300088582108583118008858210858311D22E
:100E0300AFD083D08222C0D02510C582C0E0E511C7
:100E130034FFC583C0E0E510C3958224F310AF0807
:100E23008583118582108008858311858210D2AF56
:100E3300C8F0A3E9F0A3EAF0A3EBF0A37908E7096C
:100E4300F0A3D8FAECF0A3EDF0A3EEF0A3EFF0A338
:100E5300D0E0F0A3D0E0F0A3D0E0F0A3E520F0A32E
:100E6300E5F0F0A322851183851082E0C0E0A3E0C2
:100E7300F9A3E0FAA3E0FBA37808E0F608A3DFFAFE
:100E8300E0FCA3E0FDA3E0FEA3E0FFA3E0C0E0A33A
:100E9300E0C0E0A3E0F5D0A3E0F520A3E0A3F5F0E4
:100EA30010AF0885831185821080088583118582A0
:100EB30010D2AFD082D083D0E0F8D0E03274048077
:100EC30006740280027401C0E0F404120D06D0E03F
:100ED300120BFA227404800474028000CCC0E0ED8B
:100EE300C0E0E510C39CCCAD1150011D10AF068CC2
:100EF300108D1180068C108D11D2AF120C07D0E02B
:100F0300FDD0E0FC22D083D082E9C0E0E493A3C308
:100F130086F0C5F095F0F908E493A386F0C5F09543
:100F2300F0700BE493A3C3994005E9048002A3E4A2
:100F330075F002A42582F582E5F03583F583D0E0D0
:100F4300F9E493A3C0E0E493C0E022C082C083EA43
:100F53002402F8E43BF988828983E090F40FF0EAF5
:100F630024361211A090F1FFF08A828B83E090DF88
:100F730000F08A828B83A3E090DF01F0888289836B
:100F8300E090DF02121177E090DF03121177A3E004
:100F930090DF04121188E090DF05121188A3E0901E
:100FA300DF0612118EE090DF0712118EA3E090DFAF
:100FB3000812119AE090DF0912119AA3E090DF0A58
:100FC300F0EA240B1211A090DF0BF0EA240C1211AB
:100FD300A090DF0CF0EA240D1211A090DF0DF0EACF
:100FE300240E1211A090DF0EF0EA240F1211A0902C
:100FF300DF0FF0EA24101211A090DF10F0EA2411A1
:101003001211A090DF11F0EA24121211A090DF1246
:10101300F0EA24131211A090DF13F0EA2414121142
:10102300A090DF14F0EA24151211A090DF15F0EA66
:1010330024161211A090DF16F0EA24171211A090C3
:10104300DF17F0EA24181211A090DF18F0EA241930
:101053001211A090DF19F0EA241A1211A090DF1ADE
:10106300F0EA241B1211A090DF1BF0EA241C1211DA
:10107300A090DF1CF0EA241D1211A090DF1DF0EAFE
:10108300241E1211A090DF1EF0EA241F1211A0905B
:10109300DF1FF0EA24201211A090DF23F0EA2421BD
:1010A3001211A090DF24F0EA24221211A090DF2570
:1010B300F0EA24231211A090DF27F0EA242412116E
:1010C300A090DF28F0EA24251211A090DF29F0EA8E
:1010D30024261211A090DF2AF0EA24271211A090EF
:1010E300DF2BF0EA24281211A090DF2CF0EA242948
:1010F3001211A090DF2DF0EA242A1211A090DF2E06
:10110300F0EA242B1211A090DF2FF0EA242C121105
:10111300A090DF30F0EA242D1211A090DF31F0EA25
:10112300242E1211A090DF36F0EA242F1211A09082
:10113300DF37F0EA24301211A090DF38F0EA2431CF
:101143001211A090DF39F0EA24321211A090DF3A95
:10115300F0EA24331211A090DF3BF0EA2434121199
:10116300A090DF3CF0EA24351211A090DF3DF0D0CF
:1011730083D0822212117B2212117F22F08A828B6A
:1011830083A3A3A32212117BA3A3221211922212DF
:10119300117FA3A3A3A322121192A3A322F582E496
:1011A3003BF583E022C082C083741069703D90F4E4
:1011B30005E054F4F090F4047413F074F290F3FE29
:1011C300F07400A3F0A374DFF0A374D9F0A3E4F0E8
:1011D30090F40FE090F403F090F405E0540F4440D2
:1011E300F074F3F5D574FEF5D4804F742069704A1A
:1011F30090F40DE054F4F090F40C7413F090F406B2
:1012030074DFF0A374D9F074F2A3F074FFA3F09029
:10121300F40FE07B00240250010BEB90F40AF090F2
:10122300F40FE0240290F40BF090F40DE0540F441B
:1012330010F074F4F5D37406F5D2D083D0822274FF
:10124300F7120D63EAFEEBFFEE2410FCE43FFDEE24
:10125300FAEFFB1213231212688B09EA450970E8AF
:101263007F02020DC9C082C083D2F0A28130F00197
:10127300B3E433F9A2E05008740AA2815010790054
:1012830090F40EE4F0A2819281D083D08222147074
:10129300E990F40EE070077401F0790180E77900BA
:1012A30080E3C082C08374F8120CD553FEFB53FF56
:1012B300FE53F4FB53F5FE53F6FB53F7FE53F7BF10
:1012C30053F77F8510828511837476F07401120DB4
:1012D3003FE4F07402120D3F740CF07403120D3FDF
:1012E3007421F07404120D3F74A0F07405120D3FC5
:1012F3007407F014120D3F7434F07407120D3F7429
:1013030001F07908AA10AB111214DE7C6B7DF67A1A
:101313006B7BF61213237408120CEBD083D082225A
:10132300C082C0838C828D83790012133BAA82AB67
:1013330083790112133B80E374F6120D6374CE12AA
:101343000CD5EAFEEBFF8510828511837476F07469
:1013530001120D3FE4F0E970047480800274C0C090
:10136300E07402120D3FD0E0F07903AA10AB111222
:1013730014DE7509008510828511837476F074017B
:10138300120D3F7440F07508028006121594121373
:10139300C6A809121573F96006E8C3941040ECE57A
:1013A30009C39410500A79201215941213C680EFC2
:1013B300A908AA10AB111214DE7432120CEB7F03CE
:1013C300020DC9A808851082851183E58228F5825C
:1013D300E43583F583E9F00508050922120CEB7F58
:1013E30001020DC974F8120D6374F6120CD5EAFEEE
:1013F300EBFF89088510828511837476F0740112DE
:101403000D3FE4F0E9C3944074025007120D3F749A
:10141300808005120D3F74C0F0743F55084440C0EE
:10142300E07403120D3FD0E0F07904AA10AB11125F
:1014330014DE8510828511837476F07401120D3FDA
:101443007440F08E828F83E0C0E07402120D3FD0AF
:10145300E01214C3E0C0E07403120D3FD0E0121495
:10146300C3A3E0C0E07404120D3FD0E01214C3A381
:10147300A3E0C0E07405120D3FD0E01214CAE0C02F
:10148300E07406120D3FD0E01214CAA3E0C0E0746A
:1014930007120D3FD0E01214D8E0C0E07408120D1B
:1014A3003FD0E01214D8A3E0C0E07409120D3FD07E
:1014B300E0F0790AAA10AB111214DE740A0213DFEA
:1014C300F08E828F83A3221214CE22F08E828F831A
:1014D300A3A3A3A3221214CEA3A32274F5120D6314
:1014E300EAFEEBFF890B750A00A29250FCA2A05002
:1014F300F843FE04C292121622790012157D802F42
:1015030043FE04C292790112157D121622E508C327
:1015130033F5081509E5097027790012157D53FE87
:10152300FB790112157DD3309201B35009050AE509
:101533000AC3950B501DA80A121573F508750908FF
:10154300790012157D121622E508A2E750B253FE68
:10155300FB80B2A29240FCA2A050F8790012157D44
:1015630053FEFB121622790112157D7F04020DC969
:10157300EE28F582E43FF583E022EEC0E0E9700750
:1015830043FF01C2A0800353FFFE121622D0E0FEE8
:1015930022749F29C3941A401874BF29C3941A4014
:1015A3001074E029C39404400874DB29C3941B50CE
:1015B30005748029F922E924EF605E24FE605D242E
:1015C300EF602F24E4603424E5603324FE6032248A
:1015D300FE603124BC602124FC601A24E2603714CD
:1015E300602E24EE602D24F3602314601A24EE6031
:1015F300192279822279DF22798122798022798ADC
:1016030022795422795A22799D22798C22798F2248
:10161300799C22798B22798E227920227930227843
:1016230001E8F974FF29F80470F722E9600B43C657
:1016330040E5BEA2E550FA800D53BEFBE5BEA2E62F
:1016430050FA0053C68043BE042274F1120D63E9BD
:101653006059FC8C0875090074077808120CC2E500
:10166300093395E0F50AF50BEC75F03BA4FCA8F003
:10167300E4288C0CF50D3395E0F50EF50F78087919
:101683000C120B92E5C654037808120B7985080CEB
:1016930085090D850A0E850B0F90F66C7808120BE1
:1016A300A5E50C450D450E450F70E27F08020DC9F7
:1016B300A2E0B3E433F0D083D08222C082C083900F
:1016C300F6E7E06004C2908002D29080E3C082C05B
:1016D3008390F6E8E06004C2938002D29380D174D1
:1016E300F1120D6374DC120CD51219751216BE902B
:1016F300F1FFE06420700B90F411E4F043D602751F
:10170300E1024386405386FB121268E96049851063
:1017130082851183120ED77C707DF67408120D51E9
:101723001230397404120CEB90DF3BE0F5087509B5
:10173300007808120EC47C7C7DF67416120D3FAA45
:1017430082AB831230397402120CEBAC82AD83741A
:1017530004120D5112132390DF3BE06411701175D5
:10176300E10475E1027C9C7DF67A8C7BF6121323EF
:10177300750800750900750A00750B00E586A2E27D
:10178300402A90F411E0702485080C85090D850A20
:101793000E850B0F90F6E97808120BA5851082854C
:1017A3001183780C1202FC50D30218567508007589
:1017B3000900750A00750B00E586A2E240030218D2
:1017C3007A7A007B00E586A2E2402385080C85092E
:1017D3000D850A0E850B0F90F6E97808120BA58587
:1017E3001082851183780C1202FC406780D7E5C113
:1017F300C0E012188ED0E0F05386FB0AEA70010BAA
:10180300C39404EB940040BD90F414E02406FCA3BD
:10181300E03400FDC3EC9401ED940240148050E5E4
:10182300C1C0E012188ED0E0F05386FB0AEA7001C3
:101833000BC3EA9CEB9D5021E586A2E240E190F6C2
:10184300E97808120BA585108285118378081202A6
:10185300FC50E57AFF7BFF802890F414E02404FC1D
:10186300A3E03400FD7A127BF4121ACDE970047AF6
:1018730002800C7A00800890F411E060047A017B06
:10188300007424120CEB7F08020DC974122AF5822E
:1018930074F43BF5832274F1120D6374DC120CD5DE
:1018A300121975750800750900750A00750B00801B
:1018B30076121268E9604E851082851183120ED765
:1018C3007808120EC07CBD7DF6740C120D511230D7
:1018D300397408120CEB90DF3BE0F50C750D0078C2
:1018E3000C120EC47C7C7DF67416120D3FAA82ABDB
:1018F300831230397402120CEBAC82AD8374041280
:101903000D5112132390F410E060A6E4F090F6ED6D
:10191300780C120BB8851082851183780C1202FCA7
:101923004005791E12164D85080C85090D850A0E92
:10193300850B0F90F6E97808120BA58510828511A7
:1019430083780C12030C4027E586A2E2402190DF46
:101953003BE06416701175E10475E1037C9C7DF630
:101963007AAC7BF612132343D60175E1038096020A
:101973001884851082851183EAF0A3EBF0A3ECF0C1
:10198300A3EDF022C082C083120F4E75D680C2AF82
:1019930053D68075E104539AFE75910090F1FFE0F0
:1019A30024F0600624F0600C801879101211A8123C
:1019B30019C8800E79201211A81219C843D60275CE
:1019C300E1020216B9439A01759110D2AF22D29067
:1019D30043FE0153F4FED29343FE0853F4F753FD41
:1019E300FD790012162E1212A5121F1F121B1B794E
:1019F3000090F74380137A127BF4EEF98508828511
:101A03000983A3A3A3A3A3A3A3E0F8A3E0F5838877
:101A130082120D61E9FEEE75F00BA4F8A9F0744291
:101A230028F50874F739F50990F6F1120BD612165A
:101A3300E28A0A8B0B780A120F08FFFF03191A5A5E
:101A43001AF9194A1A641A7AFF7BF2EEF9850882A9
:101A5300850983A3A380ABEEF9850882850983807A
:101A6300A37CD67DF67AC57BF612132380A8C0E04B
:101A730074F2120E0953E9EF539BFC1216D090F146
:101A8300FFE06420700590F411800390F41074015A
:101A9300F07F01020E68C082C08375BC0075BC0074
:101AA300780079008010EA28F582EB39F583E0F5B8
:101AB300BD08E8700109C3E89CE99D40E9E5BDF96B
:101AC300E5BCFAE9FBD083D0822274F5120D63EAF8
:101AD300FEEBFFEE2402F508E43FF509850882F5E5
:101AE30083E02404FCA3E03400FD121A99850882E4
:101AF300850983E0F8A3E0F9EE28F582EF39F58351
:101B0300A3A3A3A3E06A7003A3E06B70047901802D
:101B13000279007F04020DC953F3FD53FDFD438F8A
:101B230002E5F154FE4402F5F143F33C53BEFBE5F9
:101B3300BEA2E650FA53C6B8E5C6A2E640FA43BED3
:101B43000475C222E5C554E0440DF5C543868053B0
:101B5300C4FE43C40253C4FB53C4F753C4EF53C47A
:101B6300DF53C4BF53C5DF2274F5120D638A088B9C
:101B730009ECFEEDFF5386FD121A998A0A8B0B7A44
:101B8300007B00801BE5082AF582E5093BF583E02D
:101B9300F5C1E586A2E150FA5386FD0AEA70010B0E
:101BA300C3EA9EEB9F40DEE50AF5C1E586A2E1505C
:101BB300FA5386FDE50BF5C1E586A2E150FA53869B
:101BC300FD021B16E9600E146010146012146014F9
:101BD30014601680197AF57BF6227AFA7BF6227A5C
:101BE300057BF7227A0B7BF7227A157BF7227A1F84
:101BF3007BF72274F7120D63EAFE7508107509006E
:101C03007808120EC4121BC7EAFCEBFD7A127BF6AE
:101C13001230A57402120CEB7808120EC4EEF912FE
:101C23001BC7EAFCEBFD7A227BF61230A574021285
:101C33000CEB021D0B74F8120D63EAFE121BF6EE99
:101C4300F97F01020DC9EEC0E07A01121C38D0E021
:101C5300FE22222222C082C08374FC120CD585107E
:101C6300828511837402021D2C74F8120D63E9FE40
:101C73008A828B83E064017002A3E0700A121C580D
:101C83007A02EEF9121C3880B8C082C08374FC1249
:101C93000CD58510828511837404021D2C74F712F0
:101CA3000D63E9FE121CFD120F08010004FB1CF872
:101CB3001CFB1CBC1CFB1CF11C8A828B83A3A3A3EF
:101CC300A37C327DF67438120C0790F66A04F07A1E
:101CD300327BF6121987121C8C90F668E064107040
:101CE300047A0380027A04EEF9121C38800A90F613
:101CF3006AE4F08003121C6C80198A828B83E0F5FE
:101D030008A3E0F5097808227C227DF67A127BF697
:101D13001213237F02020DC9C082C08374FC120C0C
:101D2300D58510828511837407F0A3E4F074021241
:101D33000D3FE4F0A3F07C04FDAA10AB11121B6B62
:101D43007404120CEBD083D0822274F2120D6389D7
:101D53000EEAFEEBFF8E828F83121D01120F080124
:101D63000005511E5D1E511E581E511E511E731D2E
:101D7300EE2402F50CE43FF50D850C82F583E02497
:101D8300FCF8A3E034FFF990F40FE0687001E96018
:101D9300437C277DF77A127BF6123039E0F508751C
:101DA30009007808120EC4850C82850D83E024FC9B
:101DB300F508A3E034FFF5097808120EC47C377DDB
:101DC300F77A227BF61230397404120CEB7A127B09
:101DD300F6121242850C82850D83E0F8A3E0F9EE3A
:101DE30028F582EF39F5837808120BB890F6E97875
:101DF300081202C17003121D1B780079008021EEC6
:101E030028F582EF39F583A3A3A3A3E0C0E0740010
:101E130028F58274F239F583D0E0F008E8700109FF
:101E2300850C82850D83E024FCFAA3E034FFFBC319
:101E3300E89AE99B40C9AA08AB09AC0AAD0B121892
:101E43009990F6E978081202C16003121D1BA90ECE
:101E53007F07020DC9121CA080F6121C6C80F1C012
:101E630082C0837582007583FF120D2185108274F1
:101E730006F0A3E4F090F40FE079002402F8500197
:101E8300097402120D3FE8F0A3E9F07800790080AD
:101E930027EA28F582EB39F583E0C0E085108285D7
:101EA3001183E58228F582E58339F583A3A3A3A3F0
:101EB300D0E0F008E87001097402120D3FE0FCA3C2
:101EC300E0FDC3E89CE99D40C87402120D3FE02485
:101ED30004FCA3E03400FDAA10AB11121B6B758246
:101EE30000758301120D21021D4874F7120D631250
:101EF3001CFD120F080100020E1F031F0E1F0B1FF4
:101F030075E105121C6C8003121CA0021D16EEC0A5
:101F1300E0E9FE121E62EEF9D0E0FE2274F7120D24
:101F23006374A2120CD590F779742E120D59743084
:101F3300120C0790F7A9AC10AD117420120C079086
:101F4300F7C97420120D59740E120C077E00EE337C
:101F5300333354F82408F9EEF5087509007403784F
:101F630008120CC2742E120D3FE5822508FAE58390
:101F73003509FB1213E70EEEC3940640D185108298
:101F83008511837401F0120D3F7402F0120D3F743A
:101F930003F07CD77DF7120D3FAA82AB831230A5E5
:101FA3007410120D3F7404F07411120D3F7405F098
:101FB3007412120D3F7406F07413120D3F7420F067
:101FC30090DF36E06481700C12201E120EC47CE593
:101FD3007DF7800FE06401701712201E120EC47C7F
:101FE300F37DF77422120D511230397402120CEB87
:101FF3007420120D597413120D3FAA82AB83123051
:10200300A57410120D3FAC82AD83AA10AB1112134D
:1020130023745E120CEB7F02020DC9A3E0F5087571
:10202300090078082274F1120D6374FD120CD57443
:1020330002120D3FE9F08A088B098C0A8D0B741488
:10204300120D3FE0FEA3E0FF851082851183E4F0CB
:10205300A3F0EE2403FAE43FFB8E828F83A3AC82CA
:10206300AD8390F836780C120BB87808790C12040B
:102073008A70188E828F837469F08C828D83746E5C
:10208300F08E828F83A3A37466801F780879081269
:10209300048A601A8E828F83746EF08C828D8374AF
:1020A30061F08E828F83A3A3746EF00224BB90F839
:1020B3003A780C120BB87808790C1204B650030264
:1020C300216490F83E780C120BB87808790C12044E
:1020D3008A60030221B87416120D3FE070030221D7
:1020E300FA851082851183C082C0837412120D3F5A
:1020F300122EE7D083D0821224F6502E85108285CB
:102103001183C3E094FCA3E094FFA2D265D03340D3
:10211300197402120D3FE4122FC9122EE774121222
:102123000D3FC3E098F0A3E099F07412120D3F1233
:10213300252D7417120D3FE070030221F774161258
:102143000D3FE40221F990F842780C120BB878089D
:10215300790C120910851082851183E0240A122F4D
:10216300E390F846780C120BB87808790C1204B691
:1021730040D490F84A780C120BB87808790C120402
:10218300B640030220D990F84A780C120BB87808AD
:10219300790C120910122FDA80D890F842780C12B9
:1021A3000BB87808790C120551851082851183E0EC
:1021B30024F612253090F84E780C120BB878087973
:1021C3000C12050540D490F83A780C120BB8780835
:1021D300790C12050540030220D990F84A780C12B5
:1021E3000BB87808790C120551851082851183127A
:1021F300252D80D27401F07402120D3FE060047A41
:1022030000807F122502507E8E828F837430F0EC23
:10221300FEEDFF7412120D3FE0FCA3E0FDEC4D70E8
:10222300087417120D3FE0600B8E828F83742EF0BB
:10223300A30EAF837A007B0080118E828F8374306C
:102243001225267412120D3F12252DEA24FF1AEBD4
:1022530034FFFB8510828511831224EA500B74121C
:10226300120D3F122F0D4970D18510828511837491
:10227300FFC39CF874FF9DF91224F650030223CD8B
:102283007A017B0080711224DBFAE499FB80688574
:10229300080C85090D850A0E850B0F780C1203A314
:1022A300AC0CE50D3395E0F50EF50F780C12032B0E
:1022B3007808790C1206D190F84A780C120BB8788A
:1022C30008790C120551EC122520EAF8EBF9E82401
:1022D300010AE439FBE849701E7412120D3F122FF4
:1022E3000D4970087417120D3FE0600B8E828F83C7
:1022F300742EF0A30EAF837412120D3F1224EA5012
:102303008E90F852780C120BB87808790C1204B638
:1023130040030223CD7C01EE24FFF8EF34FFF97470
:1023230014120D3FE0F508A3E0F50988828983E0E4
:10233300642E6010E02CF0643A70077430F07C0176
:1023430080027C00E8FAE9FBEA24FF18EB34FFF98A
:10235300C3E5089AE5099B40D2ECA2E0506C7402F5
:10236300120D3FE0603BEEF8EF800DEC888289832D
:10237300F0E824FF18E934FFF9C3E50898E5099963
:10238300501A1224C5E0FC742E6C70DFE824FEF5AD
:1023930082E934FFF5831224D2F980D5122FDA8033
:1023A3001E8E828F83A3AE82AF83EEF8EF80061278
:1023B30024C51224D2F9C3E50898E5099940F074BD
:1023C30014120D3F122F1C7431F07416120D3FE0DE
:1023D3007005801C1EAF83EE24FFF582EF34FFF5FA
:1023E30083E0F874306860EC742E6870031EAF836A
:1023F3007402120D3FE070030224B78E828F83F0C4
:10240300EE2402E43FF9A3AA82AB831225028A8257
:102413008B835012742DF00E0EE9FF1224DBF8E4C7
:10242300991225138007742BF00E0EE9FF7C007DB3
:1024330000EE240AFE50010F0CEC70010D1224E291
:10244300120C61EA1225201224E2120C61122514E7
:10245300851082851183E04970DEC3EC9402ED128E
:102463002EBC40D4ECFAEDFBC3E49CF8E49DF9EEFA
:1024730028F582EF39F583E0C0E0C3E49AF8E49BE2
:10248300F9EE28F8EF39F9E82CF8E93DF9E824F5F5
:10249300F582E934FFF583D0E0F0EC24FF1CED3442
:1024A300FFFDC3EC9401ED122EBC50BCEE24F6FEEE
:1024B300EF34FFFFEEFAEFFB7403120CEB7F08021D
:1024C3000DC9E824FFFAE934FFFB8A828B8322E0FB
:1024D30088828983F018EB22122F75C3E4982212A5
:1024E3002F757A0A7B0022C3E09AA3E09BA2D265F0
:1024F300D03322C3E098A3E099A2D265D0332285DA
:102503001082851183C3A3E0122EC022A3E03400FE
:10251300F9851082851183E8F0A3E9F02224308E37
:10252300828F83F0A3AE82AF8322E024FFF0A3E087
:1025330034FFF02274F1120D6374B2120CD58510BE
:1025430082851183122F897413120D3FECF0A3EDD2
:10255300F0740B120D3FE4F0A38020745D120D3F65
:10256300122EFD7413120D3F122F1C120D61740BEA
:10257300120D3FE02401F0A3E03400F0122F4AF9DA
:10258300851082851183E02401FAA3E03400FB85E2
:102593001082851183122F897425696010E970BB3D
:1025A300740B120D3F122EFD744E0224BD122F4ADE
:1025B30064257019851082851183E0240108122592
:1025C3000F745D120D3F122EFD79258096740A1249
:1025D3000D3FE4F07409120D3FE4F07408120D3F4F
:1025E300E4F07405120D3FE4F0741C120D497402FB
:1025F300120D3F12251A741A120D3F7401F0A374C1
:10260300F880197405120D3FE070077405120D3F31
:10261300EAF0851082851183E8F0A3E9122FEA120C
:102623002F45FA24E060DC24FD601724F860DC24E5
:10263300FE600624FD600F80117408120D3FE00454
:1026430080CF740980F5740A80F185108285118327
:10265300122F45642A705C745F120D3F122F45FAE6
:10266300A3E0FB8A828B83E0FCA3E0FD7406120DDA
:102673003FECF0A3EDF0EA2402FA50010B745F1271
:102683000D3F122F817406120D3F122508501F743F
:1026930006120D3F122EFDC3E49AFAE49BFB740667
:1026A300120D3F122F897408120D3FE004F012251A
:1026B3001480427406120D3FE4F0A3802C740612BA
:1026C3000D3F122F0D75F00AA4F8ABF075F00AE96F
:1026D300A42BF9E82AF8E439F9E824D0F8E934FF1F
:1026E300F97406120D3F123005122FC2FA74D02A64
:1026F300C3940A40C87408120D3FE06007740A12BD
:102703000D3FE4F0122F4A642E707B8510828511F1
:1027130083E0240108122F12E8F0A3E9122FC26408
:102723002A7027745F120D3F122F54F98882898310
:10273300E0FEA3E0FFE82402F8500109745F120DE4
:102743003F122F34123005F080407E007F00122F9D
:102753004AF874D028C3940A5030EE75F00AA4FEE8
:10276300A9F075F00AEFA429FFEE28F8E43FF9E891
:1027730024D0FEE934FFFF851082851183E0240114
:10278300F812250F80C87EFF7FFF7A0085108285AF
:102793001183E02401F8122F12E0FBA3E0F5838BF1
:1027A30082E024B4600824E4600624FC70057A0106
:1027B300122514122F4AC0E07404120D3FD0E01208
:1027C3002FEA12251A7404120D3FE07003022D5CE8
:1027D30024BB7003022C3124FE7003022C1624EF59
:1027E300700302299B24F5700302289914700302D5
:1027F3002A38147003022C31147003022C2F147026
:1028030003022C1624FE7003022A3824FB602414CE
:10281300700302297F14700302299B24FD700302B5
:1028230028D924FE700302299B24FD700302298FFB
:10283300022D68745F120D3F122F69E8FCE9FDE574
:10284300082402F50850020509EAA2E0740B502F90
:10285300120D3F122EE73395E0FA8C828D83E8FC4C
:10286300E9FDEAFEECF0A3EDF0A3EEF0A3F0745F54
:10287300120D3F122F1CE508F0A3E50902257E1275
:102883000D3F122EE78C828D8312251A745F120D71
:102893003F122F3480E0745F120D3F122F54F583E3
:1028A3008882E0C0E0741C120D3FD0E0F0745F1228
:1028B3000D3F122F502402F8A3E03400F9745F1285
:1028C3000D3F122F3412251A741D120D3FA882A931
:1028D30083740D022975745F120D3F122F69E50889
:1028E3002402FAE43509FB745F120D3F122F817441
:1028F30002120D3F12251AE849700C7402120D3FA3
:102903007412F0A374F8F0122EBA50047E107F27CD
:1029130075080075090080080508E50870020509B7
:102923007402120D3F122EE788828983A3AA82AB19
:10293300837402120D3F122F8988828983E0600B12
:10294300C3E5089EE509122E9F40CD7402120D3F88
:10295300122EEB740D120D3F12251AC3E49508F8DD
:10296300E49509F9740D120D3FE028F8A3E039F955
:102973007402120D3FE8F0A3E9022D7F7409120DD2
:102983003FE06008EE4F70047E017F00741A120D61
:102993003F7421F0A374F8F0745F120D3F122F5BA4
:1029A3007404120D3FE064707034850882850983D6
:1029B300122EFD740F120D3F122FB7E508122EB021
:1029C300120D3F122F3412251A7416120D3F741074
:1029D300122FBBA3F07405120D3FE4022AADEAA245
:1029E300E0E5085016122EA6120D3F122F9F120B70
:1029F300E2740F120D3F120BEE8019122EB0120D5E
:102A03003F122FB2F8A3E0F9E8FAE9FB740F120DB5
:102A13003F122FB77404120D3FE0646F70097416F0
:102A2300120D3F740880A9E06475709D7416120D31
:102A33003F740A809B745F120D3F122F5BEAA2E082
:102A4300E5085010122EA6120D3F122F9F78081280
:102A53000BB88016122EB0120D3F122FB2F508A339
:102A6300E0F5093395E0F50AF50B740F120D3F7885
:102A730008120BC790F83E78081202D6402174055D
:102A8300120D3F742DF0740F120D3F7808120BB81E
:102A93007808120B68740F120D3F7808120BC77475
:102AA30016120D3F740A122FBBA3F0744D120D3F83
:102AB300A882A9837402120D3F12251A740D120DF8
:102AC3003F122F97120D3F120BE2E8494A4B600465
:102AD300D2008009C200EE4F7003022B8C740212E5
:102AE3000D3F122F16120D3F122F97120D3F780C28
:102AF300120BB87416120D3F7808120BB8780C79C4
:102B030008120AF6741A120D3FE02508F8A3E035FF
:102B1300098882F583E0C0E07402120D3F122F1C76
:102B2300D0E0F0740F120D3F780C120BB87416122C
:102B33000D3F7808120BB8780C7908120AF6740F57
:102B4300120D3F780C120BC7740F120D3F120BE2DC
:102B5300E8494A4B7087122EBA502E740A120D3F61
:102B6300E060267405120D3FE06004D2F08002C2DB
:102B7300F07406120D3F122ED9800E7402120D3F0F
:102B8300122F8F120D3F122F2D7402120D3F122E92
:102B9300EB744D120D3FC082C0837402120D3F12BD
:102BA3002EFDD083D082E582C39AFAE5839BFBC3D3
:102BB300EA9EEB122E9F40C37409120D3FE070038F
:102BC300022D80A2004003022D807404120D3FE009
:102BD30064786005E064587010E088828983F0E8C7
:102BE30024FF18E934FFF98017E0646F6003022DB6
:102BF300807402120D3F122F4564307003022D8042
:102C03007402120D3F122F8F120D3F122F1C7430BE
:102C1300022D7F7415120D3F7401F07404120D3FE1
:102C2300E024FEF0EE4F700D7E018010E4F0741589
:102C3300120D3FE4F0122EBA50047E067F00745F3B
:102C4300120D3F122F5B850882F583780C120BB8A7
:102C5300E508122EA6120D3F122F34122F97120DD4
:102C63003F780C120BC790F83E7808120BB8780C1B
:102C7300790812050550227405120D3F742DF07466
:102C83000F120D3F7808120BB8E50BB2E7F50B7482
:102C93000F120D3F7808120BC77406120D3F741CF8
:102CA300120D498909E028F8A3E03509F9740212E5
:102CB3000D3F12251A7409120D3FE0F5087808122A
:102CC3000EC87416120D3FE0F5087808120EC8748A
:102CD30004120D3F120EDB8E088F097808120EC402
:102CE300740A120D3FE0F97415120D3F120BD61240
:102CF30020287406120CEB740D120D3F122F8974E9
:102D03000A120D3FE060767405120D3FE06004D2B5
:102D1300F08002C2F07406120D3F122ED9740D1208
:102D23000D3FC082C0837402120D3F122EE7D08381
:102D3300D082E0C398F8A3E099F9C3E89EE9122E84
:102D43009F503A7402120D3F122F16120D3F122F8D
:102D53008F120D3F122F2D80C4851082851183128F
:102D63002EF41225137402120D3F7432F0A374F87B
:102D7300F0740D120D3F7435F0A374F8F0740D1256
:102D83000D3FC082C0837402120D3F122EE7D08321
:102D9300D082E0C398FEA3E099FF7406120D3FC3EF
:102DA300E09EA3E0122E9F5008750800750900806D
:102DB300297405120D3FE06004D2F08002C2F07462
:102DC30006120D3FE0C39EF8A3E09FF9A2F0E4339F
:102DD300FAE89AF508E99400F5097408120D3FE042
:102DE30070208019745D120D3F122F03120D3F12D4
:102DF3002F1C120D61740B120D3F122FE0122EC8FF
:102E030050E27405120D3FE06056745D120D3F12DF
:102E13002EFD7405120D3FE0F97413120D3F122FAE
:102E23001C120D618032745D120D3F122EFD74026F
:102E3300120D3F122F50F97413120D3F122F1C1253
:102E43000D617402120D3FE02401F8A3E03400F990
:102E53007402120D3F12251A740B120D3F122FE04C
:102E6300EE24FF1EEF34FFFFC3122EBC50B87408CC
:102E7300120D3FE0700302257F122EC85003022576
:102E83007F745D120D3F122F03120D3F122F1C1280
:102E93000D61740B120D3F122FE080DD9FA2D265EE
:102EA300D033222404F8E43509F9745F222402F8AC
:102EB300E43509F9745F22C3EF122EC0229400A2F5
:102EC300D265D03322E50824FFF508E50934FFF580
:102ED30009C3122EC022A2F0E433F8E098FEA3E067
:102EE3009400FF22122F7B22122EEF22122EF4F9CE
:102EF30022E024FFF8A3E034FF22E0FAA3E0FB2260
:102F0300E0FAA3E0FB7920741322122F7BE822124C
:102F13002FF922122EEF740222122F2022122F24B5
:102F230022E0F8A3E0F583888222122F207430F088
:102F330022122F3822122F3C22E0FAA3E0F5838AD3
:102F43008222122F38E022851082851183122FD11D
:102F530022122FD1F8A3E022122F5F22122FD5F5D0
:102F630008A3E0F50922122F5F850882F583122F4B
:102F73007B22851082851183E0F8A3E0F922E0FC2F
:102F8300A3E0F5838C82EAF0A3EBF022E8F0A3E957
:102F9300F0740222E8F0A3E9F0740F22122FA322A7
:102FA300122F3CE8F0A3E9F08508828509832212F9
:102FB3002FA3E022EAF0A3EBF0A3E4F0A3F02212A4
:102FC3002FC9122FD122F085108285118322122F4F
:102FD300D522122F24E022851082851183E024015B
:102FE300F0A3E03400F022122FEE22122FC9E024C6
:102FF30001F8122FF922A3E03400F985108285111C
:103003008322E8F0A3E9122FEEE8F0A3E922C082BD
:10301300C0838A828B8312309CE9F08A828B83E09F
:103023002401FCA3E03400FD8A828B83ECF0A3ED42
:10303300F0D083D0822274F7120D6374FC120CD586
:103043007402120D3FEAF0A3EBF0ECFAEDFB740D02
:10305300120D49851082851183E8F0A3E9F0A810C9
:10306300A911880889097808120EC47404120D493D
:10307300880889097808120EC47C117D301225371F
:103083007404120CEB7402120D3F12309CE4F074C2
:1030930004120CEB7F02020DC9E0F8A3E0F583886C
:1030A300822274F8120D63EAF8EBF98C828D83E0C7
:1030B300FEA3AC82AD838A828B83F0A3AA82AB8307
:0B30C30070E9E8FAE9FB7F01020DC98B
:04000005000000C730
:00000001FF
