:020000040000FA
:030000000200C734
:100083000219E600000080FBE490F1FF786D790629
:100093008002F0A3D8FCD9FA7A6B7BF79000D6786C
:1000A3000B79038015E493A3AD82AE838A828B839D
:1000B300F0A3AA82AB838D828E83D8E9D9E7121885
:1000C3008112008675D0007581BF7510FF7511F11F
:1000D30002008B00FFFFFFFF54494D454F55543A33
:1000E30020257500524144494F5F53544154453ACA
:1000F30020257500547970653A20257300535441C7
:1001030054453A20257300202020526164696F5BB7
:1001130025645D20005061636B65742072656365BF
:100123006976650001000000010101000000020082
:100133000000A086010057414B4555500057414BE5
:100143004555505F41434B0053455455505F52450D
:10015300510053455455505F525350005345545525
:10016300505F41434B0053455455505F4552520035
:10017300444154415F52455100444154415F5253FD
:100183005000444154415F41434B00455252005596
:100193004E4B4E4F574E0049444C4500434F4E4E35
:1001A300454354494E470053455455500054585FF6
:1001B3004143544956450052585F414354495645BB
:1001C30000554E4B4E4F574E0000761B821B831B30
:1001D300841B841B01821B821B831BB41B841B0295
:1001E300821B821B831BFA1B841B03821B821B83C0
:1001F3001B6D1C841B04821B821B831B371D511D1B
:10020300000103070E0E1C1D0F1F1000000F10002E
:1002130000101C0603110C001D1C0E0E0703010029
:1002230000100F0000101F0F000C1101061C10001E
:1002330000000000000000000000000000000000BB
:1002430000000000000000000000000000000000AB
:10025300000000000000000000000000000020205B
:1002630043686970636F6E20202020002020434381
:100273003235313020282575290020204343313180
:100283003130202825752900303132333435363763
:10029300383941424344454600286E756C6C2070E2
:1002A3006F696E74657229003031323334353637F5
:1002B3003839616263646566003F3F3F0000008038
:1002C3007F0000803F00000000F9021550B743BAD9
:1002D300510000204100E7DB2E0000A040C008C30E
:1002E300E096F50808A3E096420808A3E0964208C2
:1002F30008A3E0964208A2D265D033E5087001D383
:10030300D00822C3E09608A3E09608A3E09608A3CA
:10031300E09622C008C3E096F50808A3E0964208D9
:1003230008A3E096420808A3E09645087001D3D0DD
:100333000822080808E630E711120B6F12034D0874
:100343000808C64480C618181822181818E9799E98
:10035300C608CAC608CBC608CCC6C370207996CADD
:10036300CBCC7019798ECBCC70137986CC700EF907
:10037300802ACA33CACB33CBCC33CC331930E7F220
:10038300CCCBCA3350147004EA30E00DE4CA3ACA45
:10039300CB3BCBCC3CCC500209C3E913C6CC1823CE
:1003A30013C6CB18C6CA18C6F9221203ED20F014DF
:1003B30030E72B74FFFCFBFA747F8022E4FCFBFA2A
:1003C3007480801AB48008BC00F2BB00EF800F5029
:1003D300EBF9E4C39AFAE49BFBE49CFCE499C6CCF6
:1003E30018C6CB18C6CA18C6F922E4C9C608CAC6B5
:1003F30008CBC6D3330308CCC63392F0C3947F40F3
:100403002E94184019C9B90704CACBCC225025C36E
:1004130009CA33CACB33CBCC33CC33D9F422F460FF
:100423000DC9CCC313CB13CBCA13CAD9F6CC22E460
:10043300FCFBFA2214FCFBFA22E62618461846189F
:100443004622E72719471947194722181818E608BB
:1004530046087009E626087005E633F422082219D7
:100463001919E70947097009E727097005E733F404
:10047300220922E6084608C3134608336002E6331E
:10048300F422E7094709C3134709336002E733F44A
:10049300221204766025120485602012043C700346
:1004A300020445080808E76670101819E766700A21
:1004B3001819E76670041819E76622F42212047605
:1004C300601C120485601712043C70071204457007
:1004D30001D322C0D01204457006D0D0B322C32268
:1004E30033D0D0501430E0F6C3E7960809E79608F6
:1004F30009E7960809E796B32220E0D5E6970809AD
:10050300E6970809E6970809E697B322120476608E
:100513001B120485601612043C7007120445600C1C
:10052300B322C0D01204457005D0D022C32233D0E9
:10053300D0501330E0EBC3E7960809E7960809E7C4
:10054300960809E7962220E0E4E6970809E697086B
:1005530009E6970809E6972200120476604F120411
:10056300856012E7548066F612044E70111204453A
:10057300703B090909F4F618F618F618F622120466
:1005830062701512043C08080860EAE6447FF61816
:10059300768018E4F618F62212043C60161204451D
:1005A3007012E4F608F608F608E65480F60909091D
:1005B30018181822EAC0E0EBC0E0ECC0E0EDC0E0A0
:1005C300E687F0A4FBACF008E687F0A42CFCE43546
:1005D300F0FA1809E687F0A42C4B60027401CA35BF
:1005E300F0FCE433FB09E687F0D2F7A42CCB35F01B
:1005F300FC1908E687F0A42BCC35F0FBE433FD08A7
:1006030019E687F0D2E7A42C4ACB35F0CD3400FCB1
:1006130009E687F0D2E7A42DCC35F0FDE433FA09DF
:1006230018E687F0D2F7A42CCD35F0CA3400FC08C5
:10063300E687F0D2E7D2F7A42ACC35F07A7E20E71A
:100643000B0ACB33CBCD33CDCC33CC33CB3350149C
:100653007004ED30E00ED2F1E4CD3DCDCC3CCC3B8B
:100663005005DA05C2F1EB547FC63308E63392F046
:10067300FBE73309E733C39A502D2B70190C0D4C4C
:100683004D70151806E608C333700D20F10AA2F069
:1006930013F6E418800B4024E4F630F00276801859
:1006A300F618F618F68024D33B14501074FFA2F00A
:1006B30013F6187680E418F618F6800FA2F013F6F6
:1006C30018E63303F618ECF618EDF6D0E0FDD0E0AB
:1006D300FCD0E0FBD0E0FA221204856046120476D7
:1006E300603DE9687008F618F618F618F62274806B
:1006F30067F712070F090909748067F72212047656
:10070300601D1204857005191919801A12044E70A0
:100713001F120462C37003E66733191919400718DF
:1007230018182208080874FFF618F618F618F622A7
:100733001204626017120445702192F012043C7097
:1007430019501720F014080808090909E7F61819C1
:10075300E7F61819E7F61819E7F62212043C60E6E3
:10076300E869701F0808E62480F608E436F6185492
:100773007FB47F0CE654806007F6E418F618F6227F
:10078300181822E9C6CC08C6CD08C6CE08C6CFC005
:10079300E0E8C0E0EAC0E0EBC0E009E9F809E7FA05
:1007A30009E7FBE6F918E6F8C3EC98ED99EE9AEB46
:1007B300C2E7F5F0EFC2E795F0500E600CEBCFFB0C
:1007C300EACEFAE9CDF9E8CCF8EAA2E7D2E7FAEB08
:1007D30033FB13F5F0EEA2E7D2E7FEEF33FFC5F0EC
:1007E30013A2E730E601B313C5F0C3C0E0C0F07F46
:1007F30000C39BFB605E9418600F401D14601AD009
:10080300E023F9D0E0F80208E18AF0E9486003D276
:10081300F0E4AFF0FAF9F8803BEB30E40D89F0EA4D
:100823006003D2F0E4AFF0F9CAF8EB30E30D88F0DF
:10083300EF6002D2F0AFF0E4CAC9F8EB54076014DA
:10084300FBC3EA13FAE913F9E813F8EF135002D2E2
:10085300E0FFDBEDD0E0C0E030E739C3E49FFFF514
:10086300F0EC98FC42F0ED99FD42F0EE9AFE42F076
:10087300D0E0F9D0E0F8E5F0607AE923F9EE20E77B
:1008830042D8028067C3EF33FFEC33FCED33FDEE58
:1008930033FE80EAEC28FCED39FDEE3AFED0E0238E
:1008A300F9D0E0F84002801BC3EE13FEED13FDEC1C
:1008B30013FCEF135002D2E0FF08B800067F7F74E9
:1008C300FF802EEF3350178CF020F00260100CBC29
:1008D300000C0DBD00080EBE000408E860DFE9331C
:1008E300E813FFEE2313FE4F4D4C8008E95480FFBD
:1008F300E4FEFDFCEE33EF33F47004FCFD7E80D0A8
:10090300E0FBD0E0FAD0E0F8D0E0CFC618CEC618AE
:10091300CDC618CCC6F92212047670041818182212
:10092300120485700D74FFF61819F61819F61819C4
:10093300F622E7548066F612043C700F12044570E9
:10094300F014F608F608F608F680D1120445700C88
:10095300F608F608768008E6447F80EC120465709A
:100963000C12045160BFE65480F6E480BB120451BC
:10097300700519191980A5E869700C763F187680FF
:1009830018F618F6E8F922E6CDC0E018ECC0E0E668
:1009930033CD33CDD313F6E719FCE7191933CC3331
:1009A300C3947F400ECD9D502408E65480F6E4188E
:1009B300F6800FF4043D14501408E6447FF61876CD
:1009C30080E418F618F6D0E0FCD0E0FD22CCD31377
:1009D300CCFD18E4C6CBC0E018E4C6CAC0E00808E2
:1009E300ED08C633E613F618E433C675F003C3CA3D
:1009F30097CA09CB97CB199C40047D08802EBD0074
:100A030003020AC316B6FF050606081618C3CA333F
:100A1300CACB33CB33CA27CA09CB37CB193CC37DE7
:100A230008803E187D0820E75CC633C6CA33CACBAC
:100A330033CB33DDF1D5F0EB30E77BCA97CA09CB73
:100A4300974ACB199C406F4B7025E620E0218066C6
:100A5300187D08C3CA97CA09CB97CB199CD3C63351
:100A6300C6CA33CACB33CB3350C9DDE7D5F0E1D3A4
:100A7300E4C636C608C636C608C636C608C636C66F
:100A83001818188031C3CA97CA09CB97CB199CB3DE
:100A93004097C633C6CA33CACB33CB33DD34D5F024
:100AA3002EC6A2E0C640C8CA27CA09CB37194A7066
:100AB300BECB3CB480B90808E63308E633601F18A0
:100AC3001818D0E0FAD0E0FBD0E0FCD0E0FD22180B
:100AD3007D08CA27CA09CB37CB193CD3808013F6CC
:100AE30018E4B67F11F618B6FF0EF618C60470D2D6
:100AF3000808768080CAF618F618F680C5E4CFC0D9
:100B0300E0E4CEC0E0E4CDC0E0E4CCC0E075F0208A
:100B1300E626F608E633F608E633F608E633F61873
:100B23001818EC33FCED33FDEE33FEEF33FFC3EC6B
:100B33009709ED9709EE9709EF97191919400FFFD8
:100B4300EC97FC09ED97FD09EE97FE191906D5F010
:100B5300BFECF709EDF709EEF709EFF7191919D00B
:100B6300E0FCD0E0FDD0E0FED0E0FF22181818E44E
:100B7300C396F608E496F608E496F608E496F62299
:100B83006016080808C6C313C618C613C618C613CA
:100B9300C618C613C6D5E0EA22E627F60809E637E3
:100BA300F60809E637F60809E637F622E026F608DE
:100BB300A3E036F608A3E036F608A3E036F622E013
:100BC300F608A3E0F608A3E0F608A3E0F622E6F0B1
:100BD30008A3E6F008A3E6F008A3E6F022E0FAA3F0
:100BE300E0FBA3E0FCA3E0FD22E0F8A3E0F9A3E02F
:100BF300FAA3E0FB22E8F0A3E9F0A3EAF0A3EBF009
:100C030022CAC0E0E6F0A308DAFAD0E0FA22CAC0AA
:100C1300E0E0A3C582CCC582C583CDC583F0A3C55F
:100C230082CCC582C583CDC583DAE6D0E0CA22C3B0
:100C3300E498F8E499F9120C738026C3E49AFAE471
:100C43009BFBE920E7E9120C73E498F8E499F92295
:100C5300C3E498F8E499F9120C73E498F8E499F969
:100C6300C3E49AFAE49BFB22EB20E7CFE920E7E019
:100C7300B90010BB0008E88AF084F8AAF022E4FB6C
:100C8300C8FA22EB70227B10C833C8C933C933506A
:100C930007C39AC3DBF280069A50012ADBEAC83302
:100CA300F4C8C933F4C9FA2275F008E4C833C8C9D3
:100CB30033C933C99AC99B5004C92AC93BD5F0EC3F
:100CC300FBC833F4C8E4C9FA22700422600D18C6C5
:100CD300C333C608C633C6D5E0F41822251010AFB7
:100CE30008F510400C15118008F51040021511D2BB
:100CF300AF2200C0D0251010AF08F510500C05111D
:100D03008008F51050020511D2AFD0D0222510F57E
:100D13008210AF08F510400C15118008F510400241
:100D23001511D2AF851183222510F582E43511F513
:100D330083222510F8E43511F9222510FAE4351140
:100D4300FB222510FCE43511FD22E4732510C58236
:100D5300C0E0E51134FFC583C0E0E510C3958224EC
:100D6300F910AF088583118582108008858311856A
:100D73008210D2AFCEF0A3E520F0A37808E608F006
:100D8300A3DEFAEFF0A3E58124FBF8E608F0A3E67F
:100D930008F0A30808E608F0A3E608F0A3158115F8
:100DA30081D0E0FED0E0F815811581E8C0E0EEC007
:100DB300E022851183851082E0A3FEE0A3F520786D
:100DC30008E0A3F608DFFAE0A3FFE0A3C0E0E0A396
:100DD300C0E0E0A3C0E0E0A3C0E010AF088582104C
:100DE3008583118008858210858311D2AFD083D08B
:100DF3008222740280027401C0E0F404120D10D048
:100E0300E0120C04227404800474028000CCC0E05D
:100E1300EDC0E0E510C39CCCAD1150011D10AF0631
:100E23008C108D1180068C108D11D2AF120C11D045
:100E3300E0FDD0E0FC22D083D082E9C0E0E493A3BC
:100E4300C386F0C5F095F0F908E493A386F0C5F0E6
:100E530095F0700BE493A3C3994005E9048002A3C2
:100E6300E475F002A42582F582E5F03583F583D09D
:100E7300E0F9E493A3C0E0E493C0E022D083D082FE
:100E8300ECC0E0EDC0E0E493A3FCE493A3FDED4CE0
:100E9300600D120ECBEC24FFFCED34FFFD80EFE47C
:100EA30093A3FCE493A3FDED4C600D120F0AEC2415
:100EB300FFFCED34FFFD80EFD0E0FDD0E0FCE493D8
:100EC300A3C0E0E493C0E022C0E0C3E493960874B7
:100ED30001939618400FE4936670080874019366B3
:100EE3001870007019A3A3C3E49396087401939632
:100EF30018A3A3400DD0E0D0E0D0E0020EBBA3A323
:100F0300A3A3A3A3D0E022C0E0C0F088F0E49366DB
:100F130070080874019366187000A8F0A3A3700BFF
:100F2300D0F0D0E0D0E0D0E0020EBBA3A3D0F0D04D
:100F3300E022C082C083EA243612117790F1FFF0D9
:100F43008A828B83E090DF00121158E090DF011258
:100F53001158A3E090DF0212114AE090DF0312114F
:100F63004AA3E090DF0412115FE090DF0512115FE6
:100F7300A3E090DF06121165E090DF07121165A36D
:100F8300E090DF08121171E090DF09121171A3E004
:100F930090DF0AF0EA240B12117790DF0BF0EA24BA
:100FA3000C12117790DF0CF0EA240D12117790DF09
:100FB3000DF0EA240E12117790DF0EF0EA240F12DF
:100FC300117790DF0FF0EA241012117790DF10F001
:100FD300EA241112117790DF11F0EA24121211772B
:100FE30090DF12F0EA241312117790DF13F0EA2452
:100FF3001412117790DF14F0EA241512117790DFA1
:1010030015F0EA241612117790DF16F0EA2417126E
:10101300117790DF17F0EA241812117790DF18F098
:10102300EA241912117790DF19F0EA241A121177C2
:1010330090DF1AF0EA241B12117790DF1BF0EA24E9
:101043001C12117790DF1CF0EA241D12117790DF38
:101053001DF0EA241E12117790DF1EF0EA241F12FE
:10106300117790DF1FF0EA242012117790DF23F02D
:10107300EA242112117790DF24F0EA242212117757
:1010830090DF25F0EA242312117790DF27F0EA247A
:101093002412117790DF28F0EA242512117790DFCC
:1010A30029F0EA242612117790DF2AF0EA24271286
:1010B300117790DF2BF0EA242812117790DF2CF0C0
:1010C300EA242912117790DF2DF0EA242A121177EE
:1010D30090DF2EF0EA242B12117790DF2FF0EA2411
:1010E3002C12117790DF30F0EA242D12117790DF64
:1010F30031F0EA242E12117790DF36F0EA242F1212
:10110300117790DF37F0EA243012117790DF38F04F
:10111300EA243112117790DF39F0EA243212117781
:1011230090DF3AF0EA243312117790DF3BF0EA24A0
:101133003412117790DF3CF0EA243512117790DFF7
:101143003DF0D083D0822212114E2212115222126C
:101153001158A3A322F08A828B83A32212114EA3D8
:10116300A32212116922121152A3A3A3A3221211C3
:1011730069A3A322F582E43BF583E022C082C08306
:1011830090F207E054F0F090F2067413F07A0874CA
:10119300F2F87410697023E890F200F0EAA3F0A368
:1011A30074DFF0A374D9F0A37420F090F70BE090F0
:1011B300F205F090F2077440803674206970329023
:1011C300F20074DFF0A374D9F0E8A3F0EAA3F0907F
:1011D300F70BE07B00240250010BEB448090F204F8
:1011E300F090F70BE0240290F205F090F2077410F0
:1011F300F074F2F5D57400F5D4D083D08222C08286
:10120300C083D2F0A28130F001B3E433F9A2E050FD
:1012130008740AA2815010790090F307E4F0A281C8
:101223009281D083D082221470E990F307E0700793
:101233007401F0790180E7790080E3C082C0837490
:10124300F8120CDF53FEFB53FFFE53F4FB53F5FE82
:1012530053F6FB53F7FE53F7BF53F77F8510828591
:1012630011837476F07401120D2BE4F07402120DE5
:101273002B740CF07403120D2B7421F07404120DF3
:101283002B74A0F07405120D2B7407F014120D2BA0
:101293007434F07407120D2B7401F07908AA10ABA3
:1012A300111214777C6B7DF77A6B7BF71212BC7487
:1012B30008120CF5D083D08222C082C0838C828D29
:1012C3008379001212D4AA82AB8379011212D480DB
:1012D300E374F6120D4F74CE120CDFEAFEEBFF85BA
:1012E30010828511837476F07401120D2BE4F0E9FA
:1012F30070047480800274C0C0E07402120D2BD09D
:10130300E0F07903AA10AB11121477750900851068
:10131300828511837476F07401120D2B7440F0757D
:101323000802800612152D12135FA80912150CF975
:101333006006E8C3941040ECE509C39410500A79A1
:101343002012152D12135F80EFA908AA10AB1112FA
:1013530014777432120CF57F03020DB5A8088510BB
:1013630082851183E58228F582E43583F583E9F0EC
:101373000508050922120CF57F01020DB574F81258
:101383000D4F74F6120CDFEAFEEBFF89088510821D
:101393008511837476F07401120D2BE4F0E9C39484
:1013A3004074025007120D2B74808005120D2B74AC
:1013B300C0F0743F55084440C0E07403120D2BD0B5
:1013C300E0F07904AA10AB1112147785108285110D
:1013D300837476F07401120D2B7440F08E828F8328
:1013E300E0C0E07402120D2BD0E012145CE0C0E008
:1013F3007403120D2BD0E012145CA3E0C0E074045C
:10140300120D2BD0E012145CA3A3E0C0E07405120C
:101413000D2BD0E0121463E0C0E07406120D2BD044
:10142300E0121463A3E0C0E07407120D2BD0E012A6
:101433001471E0C0E07408120D2BD0E0121471A3F4
:10144300E0C0E07409120D2BD0E0F0790AAA10ABCA
:1014530011121477740A021378F08E828F83A322F9
:1014630012146722F08E828F83A3A3A3A3221214E4
:1014730067A3A32274F5120D4FEAFEEBFF890B75E8
:101483000A00A29250FCA2A050F843FE04C292129A
:1014930015BB7900121516802F43FE04C292790101
:1014A3001215161215BBE508C333F5081509E5092E
:1014B3007027790012151653FEFB7901121516D306
:1014C300309201B35009050AE50AC3950B501DA8D4
:1014D3000A12150CF508750908790012151612156C
:1014E300BBE508A2E750B253FEFB80B2A29240FCD8
:1014F300A2A050F8790012151653FEFB1215BB7902
:10150300011215167F04020DB5EE28F582E43FF5AE
:1015130083E022EEC0E0E9700743FF01C2A080032D
:1015230053FFFE1215BBD0E0FE22749F29C3941A09
:10153300401874BF29C3941A401074E029C394045B
:10154300400874DB29C3941B5005748029F922E9F0
:1015530024EF605E24FE605D24EF602F24E460349A
:1015630024E5603324FE603224FE603124BC602114
:1015730024FC601A24E2603714602E24EE602D24CC
:10158300F3602314601A24EE60192279822279DF32
:1015930022798122798022798A22795422795A22E6
:1015A300799D22798C22798F22799C22798B2279D9
:1015B3008E227920227930227801E8F974FF29F804
:1015C3000470F722E9600B43C640E5BEA2E550FA7A
:1015D300800D53BEFBE5BEA2E650FA0053C680431E
:1015E300BE042274F1120D4FE96059FC8C08750991
:1015F3000074077808120CCCE5093395E0F50AF579
:101603000BEC75F03BA4FCA8F0E4288C0CF50D332F
:1016130095E0F50EF50F7808790C120B9CE5C6548E
:10162300037808120B8385080C85090D850A0E853E
:101633000B0F90F76C7808120BAFE50C450D450EB8
:10164300450F70E27F08020DB574F1120D4F74DE81
:10165300120CDF851082851183EAF0A3EBF0ECFE18
:10166300EDFF90F7C0E06004C2908002D290A2E048
:10167300B3E433F0121201E960487433120D2B12F4
:101683000E087C707DF77406120D3D122E797404DA
:10169300120CF590DF3BE0F5087509007808120D90
:1016A300F57C7C7DF77414120D2BAA82AB83122E6A
:1016B300797402120CF5AC82AD837402120D3D12E3
:1016C30012BC90DF3BE06411700675E10475E10222
:1016D3004386405386FB750800750900750A00753B
:1016E3000B007C007D00E586A2E2403485080C8572
:1016F300090D850A0E850B0F90F7C27808120BAF00
:101703007433120D2B780C12030650030217A485B1
:1017130010828511831219DDE060CB7A010217ACC8
:10172300E5C1C0E0EE2CF582EF3DF583D0E0F00C8F
:10173300EC70010DC39404ED940040AA8E828F8354
:10174300A3A3E02CFAA3E03DFB7431120D2BE0F8C8
:10175300A3E0F9C3E89AE99B501AE8FAE9FB80147D
:10176300E5C1C0E0EE2CF582EF3DF583D0E0F00C4F
:10177300EC70010DC3EC9AED9B502CE586A2E24080
:10178300DF85080C85090D850A0E850B0F90F7C2BE
:101793007808120BAF7433120D2B780C120306501A
:1017A300DA7AFF7BFF80047A007B007422120CF547
:1017B3007F08020DB574F1120D4F7508007509000D
:1017C300750A00750B00802543D60175E10390F37C
:1017D30008E060FAE4F090F7C6780C120BC290F7B9
:1017E300BC780C120306400579321215E685080C05
:1017F30085090D850A0E850B0F90F7C27808120B29
:10180300AF90F7BC780C12031650BD80A374F81286
:101813000D4FEAFEEBFF8E828F83A3A3E090F70BBD
:10182300F0EE2438F582E43FF583120BEC90F7BC1D
:10183300120BF8EEFAEFFB120F35EE2436F582E4C5
:101843003FF583E024F0600624F06011802290F3DA
:101853000A7410F0F912117F121878801390F30AAA
:101863007420F0F912117F12187875D60175E10210
:101873007F01020DB5439A01759110D2AF2274E036
:10188300120CDFD29043FE0153F4FED29343FE08C1
:1018930053F4F753FDFD79001215C712123E121DC2
:1018A3005F121A7A790090F862806190F30BE0F985
:1018B300121A228A0A8B0B780A120DF57C8C7DF79B
:1018C3007402120D3D122E797402120CF5A908123E
:1018D3001AE78A0A8B0B780A120DF57C957DF7744B
:1018E30012120D2BAA82AB83122E797402120CF5FD
:1018F300AC82AD83AA10AB111212BC7A0B7BF3A995
:10190300088E828F83A3A3A3A3A3A3A31219DD121B
:101913000D4DE9F508E50875F00BA4F8A9F074611D
:1019230028FE74F839FF90F7CA120E08750A00757D
:101933000B04780A120DF57C0B7DF37A097BF31205
:10194300164C7406120CF58A0A8B0B780A120E39A0
:10195300FFFF021819D419AE185E1990F309E4F0C9
:101963007A087BF2A9088E828F83A3A3A3A3A3A3E0
:10197300A3A3A31219DD120D4DE9F50875D6017560
:10198300E10290F70CE0F50AA3E0F50BE50A240168
:10199300F8E4350BF990F70CE8F0A3E9F0780A12B4
:1019A3000DF57C9F7DF77402120D3D122E797402A2
:1019B300120CF57CAD7DF77410120D2BAA82AB834C
:1019C300122E79AC82AD83AA10AB111212BC02198C
:1019D30018A9088E828F8302190AE0F8A3E0F58321
:1019E300888222C0E0C0D0C082C08353E9EF539BFA
:1019F300FC90F7C1E06004C2938002D293A2E0B3EB
:101A0300E433F090F30AE06420700590F309800357
:101A130090F3087401F0D083D082D0D0D0E032E9C3
:101A230014601D14601F14602114602314602514B6
:101A3300602714602914602B14602D14602F8032EA
:101A43007ACE7BF7227AD57BF7227AE07BF7227A6C
:101A5300EA7BF7227AF47BF7227AFE7BF7227A0875
:101A63007BF8227A117BF8227A1A7BF8227A237B7D
:101A7300F8227A277BF82253F3FD53FDFD438F02AF
:101A8300E5F154FE4402F5F143F33C75C222E5C58A
:101A930054E0440BF5C543868053C4FE43C402534C
:101AA300C4FB53C4F753C4EF53C4DF53C4BF53C57C
:101AB300DF22C082C0835386FD780079008019EA53
:101AC30028F582EB39F583E0F5C1E586A2E150FA0A
:101AD3005386FD08E8700109C3E89CE99D40E0D006
:101AE30083D08222E9600E14601014601214601413
:101AF30014601680197A2F7BF8227A347BF8227AC5
:101B03003F7BF8227A457BF8227A4F7BF8227A5979
:101B13007BF8227C1E7DF77A0E7BF71212BC7F02C4
:101B2300020DB574F7120D4FEAFE75081075090022
:101B33007808120DF5121AE7EAFCEBFD7A0E7BF733
:101B4300122EE57402120CF57808120DF5EEF91257
:101B53001AE7EAFCEBFD7A1E7BF7122EE5740212FC
:101B63000CF580AF74F8120D4FEAFE121B26EEF946
:101B7300021D32EEC0E07A01121B67D0E0FE222282
:101B83002222C082C08374FC120CDF85108285116F
:101B9300837402F0A3E4F07402120D2BE4F0A3F0BB
:101BA3007C04FDAA10AB11121AB57404120CF58053
:101BB3004174F8120D4FE9FE8A828B83E064017051
:101BC30002A3E0700A121B857A02EEF9121B670268
:101BD3001D32C082C0838A828B837404F0A3E4F035
:101BE3008A828B83A3A3E02404FCA3E03400FD12C8
:101BF3001AB5D083D0822274F7120D4FE9FE8A8280
:101C03008B83E0F508A3E0F5097808120E39030089
:101C1300035D1C1E1C5D1C361C581C8A828B83A30F
:101C2300A3A3A37C2E7DF7743C120C11121BD5EEDB
:101C3300F9802790F76A7401F07A2E7BF712181057
:101C430090F764E0641070047A0380027A04EEF97A
:101C5300121B67800590F76AE4F0021B21C082C063
:101C6300838A828B837408021BDF74F5120D4F89FC
:101C730008EAFEEBFF8E828F83E0F50AA3E0F50B03
:101C8300780A120E7F000002000100DC1C07009698
:101C93001CD51C7A00801DEE2CF582E43FF583A34E
:101CA300A3A3A3E0C0E074082CF582E434F2F58327
:101CB300D0E0F00AEAFC8E828F83A3A3E0F8A3E0CE
:101CC300F9C3EC98E49940CF1217B8EEFAEFFB1280
:101CD3001C60A9087F04020DB5121BB480F674F8CA
:101CE300120D4F74FC120CDFEAFEEBFF85108285A8
:101CF30011837407F0A3E4F090F70BE0790024025A
:101D0300F85001097402120D2BE8F0A3E9F07C04EA
:101D13007D00AA10AB11121AB57402120D2BE0FC50
:101D2300A3E0FDEEFAEFFB121AB57404120CF57F73
:101D330001020DB574F8120D4F8A828B83E06401A2
:101D43007002A3E0700675E105121BB480E1EEC0DA
:101D5300E0E9FE121CE1EEF9D0E0FE2274F7120D69
:101D63004F74A2120CDF90F898742E120D45743044
:101D7300120C1190F8C8AC10AD117420120C119014
:101D8300F8E87420120D45740E120C117E00EE3328
:101D9300333354F82408F9EEF50875090074037811
:101DA30008120CCC742E120D2BE5822508FAE5835C
:101DB3003509FB1213800EEEC3940640D1851082C1
:101DC3008511837401F0120D2B7402F0120D2B7424
:101DD30003F07CF67DF8120D2BAA82AB83122EE55D
:101DE3007410120D2B7404F07411120D2B7405F082
:101DF3007412120D2B7406F07413120D2B7420F051
:101E030090DF36E06481700C121E5E120DF57C04C7
:101E13007DF9800FE064017017121E5E120DF57CD0
:101E2300127DF97422120D3D122E797402120CF5F3
:101E33007420120D457413120D2BAA82AB83122E3C
:101E4300E57410120D2BAC82AD83AA10AB111212E4
:101E5300BC745E120CF57F02020DB5A3E0F50875A4
:101E6300090078082274F1120D4F74FD120CDF740F
:101E730002120D2BE9F08A088B098C0A8D0B74145E
:101E8300120D2BE0FEA3E0FF851082851183E4F0A1
:101E9300A3F0EE2403FAE43FFB8E828F83A3AC828C
:101EA300AD8390F955780C120BC27808790C1204A3
:101EB3009470188E828F837469F08C828D83746E14
:101EC300F08E828F83A3A37466801F78087908122B
:101ED3000494601A8E828F83746EF08C828D837467
:101EE30061F08E828F83A3A3746EF00222FB90F9BC
:101EF30059780C120BC27808790C1204C0500302F3
:101F03001FA490F95D780C120BC27808790C1204A7
:101F1300946003021FF87416120D2BE07003022065
:101F23003A851082851183C082C0837412120D2BEF
:101F3300122D27D083D082122336502E851082850E
:101F43001183C3E094FCA3E094FFA2D265D0334095
:101F5300197402120D2BE4122E09122D277412127A
:101F63000D2BC3E098F0A3E099F07412120D2B121D
:101F7300236D7417120D2BE07003022037741612B1
:101F83000D2BE402203990F961780C120BC278080A
:101F9300790C12091A851082851183E0240A122E06
:101FA3002390F965780C120BC27808790C1204C0DF
:101FB30040D490F969780C120BC27808790C12049A
:101FC300C04003021F1990F969780C120BC27808FC
:101FD300790C12091A122E1A80D890F961780C1212
:101FE3000BC27808790C12055B851082851183E09A
:101FF30024F612237090F96D780C120BC2780879CD
:102003000C12050F40D490F959780C120BC27808C2
:10201300790C12050F4003021F1990F969780C120D
:102023000BC27808790C12055B8510828511831227
:10203300236D80D27401F07402120D2BE060047AD8
:1020430000807F122342507E8E828F837430F0ECA7
:10205300FEEDFF7412120D2BE0FCA3E0FDEC4D70BE
:10206300087417120D2BE0600B8E828F83742EF091
:10207300A30EAF837A007B0080118E828F8374302E
:102083001223667412120D2B12236DEA24FF1AEB2E
:1020930034FFFB85108285118312232A500B74129F
:1020A300120D2B122D4D4970D18510828511837429
:1020B300FFC39CF874FF9DF9122336500302220DCF
:1020C3007A017B00807112231BFAE499FB806885F7
:1020D300080C85090D850A0E850B0F780C1203ADCC
:1020E300AC0CE50D3395E0F50EF50F780C120335C6
:1020F3007808790C1206DB90F969780C120BC27818
:1021030008790C12055BEC122360EAF8EBF9E8247A
:10211300010AE439FBE849701E7412120D2B122DCB
:102123004D4970087417120D2BE0600B8E828F835C
:10213300742EF0A30EAF837412120D2B12232A50A8
:102143008E90F971780C120BC27808790C1204C0C6
:10215300400302220D7C01EE24FFF8EF34FFF974F3
:1021630014120D2BE0F508A3E0F50988828983E0BA
:10217300642E6010E02CF0643A70077430F07C0138
:1021830080027C00E8FAE9FBEA24FF18EB34FFF94C
:10219300C3E5089AE5099B40D2ECA2E0506C7402B7
:1021A300120D2BE0603BEEF8EF800DEC8882898303
:1021B300F0E824FF18E934FFF9C3E50898E5099925
:1021C300501A122305E0FC742E6C70DFE824FEF530
:1021D30082E934FFF583122312F980D5122E1A8077
:1021E3001E8E828F83A3AE82AF83EEF8EF8006123A
:1021F3002305122312F9C3E50898E5099940F07401
:1022030014120D2B122D5C7431F07416120D2BE089
:102213007005801C1EAF83EE24FFF582EF34FFF5BB
:1022230083E0F874306860EC742E6870031EAF832B
:102233007402120D2BE070030222F78E828F83F05B
:10224300EE2402E43FF9A3AA82AB831223428A82DB
:102253008B835012742DF00E0EE9FF12231BF8E44A
:10226300991223538007742BF00E0EE9FF7C007D37
:1022730000EE240AFE50010F0CEC70010D12232214
:10228300120C6BEA122360122322120C6B122354DA
:10229300851082851183E04970DEC3EC9402ED1250
:1022A3002CFC40D4ECFAEDFBC3E49CF8E49DF9EE7E
:1022B30028F582EF39F583E0C0E0C3E49AF8E49BA4
:1022C300F9EE28F8EF39F9E82CF8E93DF9E824F5B7
:1022D300F582E934FFF583D0E0F0EC24FF1CED3404
:1022E300FFFDC3EC9401ED122CFC50BCEE24F6FE72
:1022F300EF34FFFFEEFAEFFB7403120CF57F0802D5
:102303000DB5E824FFFAE934FFFB8A828B8322E0D0
:1023130088828983F018EB22122DB5C3E498221228
:102323002DB57A0A7B0022C3E09AA3E09BA2D26573
:10233300D03322C3E098A3E099A2D265D03322859B
:102343001082851183C3A3E0122D0022A3E0340081
:10235300F9851082851183E8F0A3E9F02224308EF9
:10236300828F83F0A3AE82AF8322E024FFF0A3E049
:1023730034FFF02274F1120D4F74B2120CDF85108A
:1023830082851183122DC97413120D2BECF0A3ED6A
:10239300F0740B120D2BE4F0A38020745D120D2B4F
:1023A300122D3D7413120D2B122D5C120D4D740B57
:1023B300120D2BE02401F0A3E03400F0122D8AF972
:1023C300851082851183E02401FAA3E03400FB85A4
:1023D3001082851183122DC97425696010E970BBC1
:1023E300740B120D2B122D3D744E0222FD122D8AF9
:1023F30064257019851082851183E0240108122356
:102403004F745D120D2B122D3D79258096740A129F
:102413000D2BE4F07409120D2BE4F07408120D2B4C
:10242300E4F07405120D2BE4F0741C120D357402E4
:10243300120D2B12235A741A120D2B7420F0A3744D
:10244300F980197405120D2BE070077405120D2B1A
:10245300EAF0851082851183E8F0A3E9122E2A128F
:102463002D85FA24E060DC24FD601724F860DC2469
:10247300FE600624FD600F80117408120D2BE0042A
:1024830080CF740980F5740A80F1851082851183E9
:10249300122D85642A705C745F120D2B122D85FA40
:1024A300A3E0FB8A828B83E0FCA3E0FD7406120D9C
:1024B3002BECF0A3EDF0EA2402FA50010B745F1247
:1024C3000D2B122DC17406120D2B122348501F74AD
:1024D30006120D2B122D3DC3E49AFAE49BFB7406FE
:1024E300120D2B122DC97408120D2BE004F01223C8
:1024F3005480427406120D2BE4F0A3802C74061250
:102503000D2B122D4D75F00AA4F8ABF075F00AE906
:10251300A42BF9E82AF8E439F9E824D0F8E934FFE0
:10252300F97406120D2B122E45122E02FA74D02ABC
:10253300C3940A40C87408120D2BE06007740A1292
:102543000D2BE4F0122D8A642E707B851082851189
:1025530083E0240108122D52E8F0A3E9122E02644D
:102563002A7027745F120D2B122D94F988828983A8
:10257300E0FEA3E0FFE82402F8500109745F120DA6
:102583002B122D74122E45F080407E007F00122DF9
:102593008AF874D028C3940A5030EE75F00AA4FE6A
:1025A300A9F075F00AEFA429FFEE28F8E43FF9E853
:1025B30024D0FEE934FFFF851082851183E02401D6
:1025C300F812234F80C87EFF7FFF7A008510828533
:1025D3001183E02401F8122D52E0FBA3E0F5838B75
:1025E30082E024B4600824E4600624FC70057A01C8
:1025F300122354122D8AC0E07404120D2BD0E01262
:102603002E2A12235A7404120D2BE07003022B9C02
:1026130024BB7003022A7124FE7003022A5624EF9E
:1026230070030227DB24F570030226D9147003021A
:102633002878147003022A71147003022A6F14702D
:1026430003022A5624FE700302287824FB60241414
:1026530070030227BF1470030227DB24FD700302FB
:10266300271924FE70030227DB24FD70030227CF02
:10267300022BA8745F120D2B122DA9E8FCE9FDE5CE
:10268300082402F50850020509EAA2E0740B502F52
:10269300120D2B122D273395E0FA8C828D83E8FCE3
:1026A300E9FDEAFEECF0A3EDF0A3EEF0A3F0745F16
:1026B300120D2B122D5CE508F0A3E5090223BE12CF
:1026C3000D2B122D278C828D8312235A745F120DCA
:1026D3002B122D7480E0745F120D2B122D94F58351
:1026E3008882E0C0E0741C120D2BD0E0F0745F12FE
:1026F3000D2B122D902402F8A3E03400F9745F121D
:102703000D2B122D7412235A741D120D2BA882A99E
:1027130083740D0227B5745F120D2B122DA9E508E2
:102723002402FAE43509FB745F120D2B122DC174D8
:1027330002120D2B12235AE849700C7402120D2B4E
:102743007431F0A374F9F0122CFA50047E107F2731
:1027530075080075090080080508E5087002050979
:102763007402120D2B122D2788828983A3AA82ABB0
:10277300837402120D2B122DC988828983E0600BAA
:10278300C3E5089EE509122CDF40CD7402120D2B20
:10279300122D2B740D120D2B12235AC3E49508F836
:1027A300E49509F9740D120D2BE028F8A3E039F92B
:1027B3007402120D2BE8F0A3E9022BBF7409120D6A
:1027C3002BE06008EE4F70047E017F00741A120D37
:1027D3002B7440F0A374F9F0745F120D2B122D9B30
:1027E3007404120D2BE064707034850882850983AC
:1027F300122D3D740F120D2B122DF7E508122CF03C
:10280300120D2B122D7412235A7416120D2B7410E1
:10281300122DFBA3F07405120D2BE40228EDEAA29E
:10282300E0E5085016122CE6120D2B122DDF120BC9
:10283300EC740F120D2B120BF88019122CF0120DE1
:102843002B122DF2F8A3E0F9E8FAE9FB740F120D4D
:102853002B122DF77404120D2BE0646F700974169C
:10286300120D2B740880A9E06475709D7416120D07
:102873002B740A809B745F120D2B122D9BEAA2E02E
:10288300E5085010122CE6120D2B122DDF780812DA
:102893000BC28016122CF0120D2B122DF2F508A389
:1028A300E0F5093395E0F50AF50B740F120D2B785B
:1028B30008120BD190F95D78081202E040217405EB
:1028C300120D2B742DF0740F120D2B7808120BC2FE
:1028D3007808120B72740F120D2B7808120BD17437
:1028E30016120D2B740A122DFBA3F0744D120D2B2F
:1028F300A882A9837402120D2B12235A740D120D90
:102903002B122DD7120D2B120BECE8494A4B600406
:10291300D2008009C200EE4F70030229CC74021268
:102923000D2B122D56120D2B122DD7120D2B780CA9
:10293300120BC27416120D2B7808120BC2780C7985
:1029430008120B00741A120D2BE02508F8A3E035CA
:10295300098882F583E0C0E07402120D2B122D5C0E
:10296300D0E0F0740F120D2B780C120BC2741612F8
:102973000D2B7808120BC2780C7908120B00740F18
:10298300120D2B780C120BD1740F120D2B120BECB2
:10299300E8494A4B7087122CFA502E740A120D2BF9
:1029A300E060267405120D2BE06004D2F08002C2B1
:1029B300F07406120D2B122D19800E7402120D2BBA
:1029C300122DCF120D2B122D6D7402120D2B122D01
:1029D3002B744D120D2BC082C0837402120D2B1267
:1029E3002D3DD083D082E582C39AFAE5839BFBC356
:1029F300EA9EEB122CDF40C37409120D2BE0700327
:102A0300022BC0A2004003022BC07404120D2BE062
:102A130064786005E064587010E088828983F0E888
:102A230024FF18E934FFF98017E0646F6003022B79
:102A3300C07402120D2B122D8564307003022BC05B
:102A43007402120D2B122DCF120D2B122D5C74302C
:102A5300022BBF7415120D2B7401F07404120D2B8D
:102A6300E024FEF0EE4F700D7E018010E4F074154B
:102A7300120D2BE4F0122CFA50047E067F00745FD3
:102A8300120D2B122D9B850882F583780C120BC235
:102A9300E508122CE6120D2B122D74122DD7120DF0
:102AA3002B780C120BD190F95D7808120BC2780CBD
:102AB300790812050F50227405120D2B742DF07432
:102AC3000F120D2B7808120BC2E50BB2E7F50B744E
:102AD3000F120D2B7808120BD17406120D2B741CD8
:102AE300120D358909E028F8A3E03509F9740212BB
:102AF3000D2B12235A7409120D2BE0F508780812D6
:102B03000DF97416120D2BE0F5087808120DF974FF
:102B130004120D2B120E0C8E088F097808120DF576
:102B2300740A120D2BE0F97415120D2B120BE0121F
:102B33001E687406120CF5740D120D2B122DC97438
:102B43000A120D2BE060767405120D2BE06004D29F
:102B5300F08002C2F07406120D2B122D19740D129F
:102B63000D2BC082C0837402120D2B122D27D0832C
:102B7300D082E0C398F8A3E099F9C3E89EE9122C48
:102B8300DF503A7402120D2B122D56120D2B122DFB
:102B9300CF120D2B122D6D80C485108285118312E7
:102BA3002D341223537402120D2B7451F0A374F9B4
:102BB300F0740D120D2B7454F0A374F9F0740D120C
:102BC3000D2BC082C0837402120D2B122D27D083CC
:102BD300D082E0C398FEA3E099FF7406120D2BC3C5
:102BE300E09EA3E0122CDF500875080075090080F1
:102BF300297405120D2BE06004D2F08002C2F07438
:102C030006120D2BE0C39EF8A3E09FF9A2F0E43374
:102C1300FAE89AF508E99400F5097408120D2BE017
:102C230070208019745D120D2B122D43120D2B127F
:102C33002D5C120D4D740B120D2B122E20122D082C
:102C430050E27405120D2BE06056745D120D2B12C9
:102C53002D3D7405120D2BE0F97413120D2B122D5B
:102C63005C120D4D8032745D120D2B122D3D7402DA
:102C7300120D2B122D90F97413120D2B122D5C12C1
:102C83000D4D7402120D2BE02401F8A3E03400F97A
:102C93007402120D2B12235A740B120D2B122E20B9
:102CA300EE24FF1EEF34FFFFC3122CFC50B8740850
:102CB300120D2BE070030223BF122D0850030223D1
:102CC300BF745D120D2B122D43120D2B122D5C12AE
:102CD3000D4D740B120D2B122E2080DD9FA2D26599
:102CE300D033222404F8E43509F9745F222402F86E
:102CF300E43509F9745F22C3EF122D00229400A278
:102D0300D265D03322E50824FFF508E50934FFF541
:102D130009C3122D0022A2F0E433F8E098FEA3E0E9
:102D23009400FF22122DBB22122D2F22122D34F9D3
:102D330022E024FFF8A3E034FF22E0FAA3E0FB2221
:102D4300E0FAA3E0FB7920741322122DBBE82212D0
:102D53002E3922122D2F740222122D6022122D647D
:102D630022E0F8A3E0F583888222122D607430F00C
:102D730022122D7822122D7C22E0FAA3E0F5838A19
:102D83008222122D78E022851082851183122E1162
:102D930022122E11F8A3E022122D9F22122E15F5D6
:102DA30008A3E0F50922122D9F850882F583122DD1
:102DB300BB22851082851183E0F8A3E0F922E0FCB1
:102DC300A3E0F5838C82EAF0A3EBF022E8F0A3E919
:102DD300F0740222E8F0A3E9F0740F22122DE3222B
:102DE300122D7CE8F0A3E9F085088285098322127D
:102DF3002DE3E022EAF0A3EBF0A3E4F0A3F0221228
:102E03002E09122E1122F085108285118322122E93
:102E13001522122D64E022851082851183E024019E
:102E2300F0A3E03400F022122E2E22122E09E02409
:102E330001F8122E3922A3E03400F985108285119E
:102E43008322E8F0A3E9122E2EE8F0A3E922C08240
:102E5300C0838A828B83122EDCE9F08A828B83E023
:102E63002401FCA3E03400FD8A828B83ECF0A3ED04
:102E7300F0D083D0822274F7120D4F74FC120CDF52
:102E83007402120D2BEAF0A3EBF0ECFAEDFB740DD8
:102E9300120D35851082851183E8F0A3E9F0A8109F
:102EA300A911880889097808120DF57404120D35E3
:102EB300880889097808120DF57C517D2E12237735
:102EC3007404120CF57402120D2B122EDCE4F07450
:102ED30004120CF57F02020DB5E0F8A3E0F5838838
:102EE300822274F8120D4FEAF8EBF98C828D83E09D
:102EF300FEA3AC82AD838A828B83F0A3AA82AB83C9
:0B2F030070E9E8FAE9FB7F01020DB560
:04000005000000C730
:00000001FF
