:020000040000FA
:030000000200C734
:100083000219A100000080FBE490F1FF7888790653
:100093008002F0A3D8FCD9FA7A867BF79000D67851
:1000A3002579038015E493A3AD82AE838A828B8383
:1000B300F0A3AA82AB838D828E83D8E9D9E7121885
:1000C3005212008675D0007581BF7510FF7511F14E
:1000D30002008B00FFFFFFFF54494D454F55543A33
:1000E30020257500524144494F5F53544154453ACA
:1000F300202575004D4F44453A20257500434D4456
:1001030020203A2025730053544154453A20257347
:100113000020202020202043524320202020202084
:10012300200020202020204552524F522120202001
:10013300202000202020526164696F5B25645D20CC
:10014300005061636B657420726563656976650051
:1001530001010100000002000000A08601005741D8
:100163004B4555500057414B4555505F41434B005C
:1001730053455455505F5245510053455455505FB4
:1001830041434B0053455455505F4552520044413F
:1001930054415F52455100444154415F41434B0038
:1001A300455252004E4F4E4500554E4B4E4F574E03
:1001B3000049444C4500434F4E4E454354494E4736
:1001C3000053455455500054585F414354495645D4
:1001D3000052585F41435449564500554E4B4E4FCC
:1001E300574E0000C81BD41BD51BD61BD61B01D4EE
:1001F3001BD41BD51BEB1BD61B02D41BD41BD51B3B
:100203001F1CD61B03D41BD41BD51BBE1CD61B041F
:10021300D41BD41BD51BD51D071E000103070E0ECF
:100223001C1D0F1F1000000F100000101C060311EF
:100233000C001D1C0E0E0703010000100F00001020
:100243001F0F000C1101061C10000000000000002D
:10025300000000000000000000000000000000009B
:10026300000000000000000000000000000000008B
:100273000000000000000000202043686970636FE5
:100283006E202020200020204343323531302028A7
:10029300257529002020434331313130202825752D
:1002A300290030313233343536373839414243440B
:1002B300454600286E756C6C20706F696E746572AC
:1002C300290030313233343536373839616263646B
:1002D3006566003F3F3F000000807F0000803F00D5
:1002E300000000F9021550B743BA51000020410045
:1002F300E7DB2E0000A040C008C3E096F50808A382
:10030300E096420808A3E096420808A3E096420854
:10031300A2D265D033E5087001D3D00822C3E0969A
:1003230008A3E09608A3E09608A3E09622C008C3BA
:10033300E096F50808A3E096420808A3E096420871
:1003430008A3E09645087001D3D00822080808E600
:1003530030E711120B89120367080808C64480C6E8
:1003630018181822181818E9799EC608CAC608CBA7
:10037300C608CCC6C370207996CACBCC7019798EC7
:10038300CBCC70137986CC700EF9802ACA33CACBD2
:1003930033CBCC33CC331930E7F2CCCBCA33501444
:1003A3007004EA30E00DE4CA3ACACB3BCBCC3CCC78
:1003B300500209C3E913C6CC182313C6CB18C6CA07
:1003C30018C6F92212040720F01430E72B74FFFC3F
:1003D300FBFA747F8022E4FCFBFA7480801AB480F9
:1003E30008BC00F2BB00EF800F50EBF9E4C39AFAAC
:1003F300E49BFBE49CFCE499C6CC18C6CB18C6CAA4
:1004030018C6F922E4C9C608CAC608CBC6D3330343
:1004130008CCC63392F0C3947F402E94184019C978
:10042300B90704CACBCC225025C309CA33CACB337C
:10043300CBCC33CC33D9F422F4600DC9CCC313CB6A
:1004430013CBCA13CAD9F6CC22E4FCFBFA2214FC60
:10045300FBFA22E62618461846184622E7271947CC
:100463001947194722181818E60846087009E6269E
:10047300087005E633F4220822191919E709470918
:100483007009E727097005E733F4220922E60846D5
:1004930008C3134608336002E633F422E709470929
:1004A300C3134709336002E733F422120490602533
:1004B30012049F6020120456700302045F080808A8
:1004C300E76670101819E766700A1819E766700472
:1004D3001819E76622F422120490601C12049F602C
:1004E30017120456700712045F7001D322C0D01292
:1004F300045F7006D0D0B322C32233D0D05014305F
:10050300E0F6C3E7960809E7960809E7960809E7BE
:1005130096B32220E0D5E6970809E6970809E697FF
:100523000809E697B322120490601B12049F601619
:10053300120456700712045F600CB322C0D0120479
:100543005F7005D0D022C32233D0D0501330E0EBFC
:10055300C3E7960809E7960809E7960809E796228C
:1005630020E0E4E6970809E6970809E6970809E614
:10057300972200120490604F12049F6012E7548088
:1005830066F6120468701112045F703B090909F4DE
:10059300F618F618F618F62212047C701512045693
:1005A30008080860EAE6447FF618768018E4F6182F
:1005B300F622120456601612045F7012E4F608F66F
:1005C30008F608E65480F609090918181822EAC043
:1005D300E0EBC0E0ECC0E0EDC0E0E687F0A4FBACEC
:1005E300F008E687F0A42CFCE435F0FA1809E68756
:1005F300F0A42C4B60027401CA35F0FCE433FB0910
:10060300E687F0D2F7A42CCB35F0FC1908E687F087
:10061300A42BCC35F0FBE433FD0819E687F0D2E7D1
:10062300A42C4ACB35F0CD3400FC09E687F0D2E7A1
:10063300A42DCC35F0FDE433FA0918E687F0D2F7A0
:10064300A42CCD35F0CA3400FC08E687F0D2E7D2FB
:10065300F7A42ACC35F07A7E20E70B0ACB33CBCD37
:1006630033CDCC33CC33CB3350147004ED30E00EA8
:10067300D2F1E4CD3DCDCC3CCC3B5005DA05C2F103
:10068300EB547FC63308E63392F0FBE73309E733D5
:10069300C39A502D2B70190C0D4C4D70151806E68E
:1006A30008C333700D20F10AA2F013F6E418800B8F
:1006B3004024E4F630F002768018F618F618F68037
:1006C30024D33B14501074FFA2F013F6187680E481
:1006D30018F618F6800FA2F013F618E63303F6188F
:1006E300ECF618EDF6D0E0FDD0E0FCD0E0FBD0E076
:1006F300FA2212049F6046120490603DE968700874
:10070300F618F618F618F622748067F71207290907
:100713000909748067F722120490601D12049F7008
:1007230005191919801A120468701F12047CC3700A
:1007330003E667331919194007181818220808081F
:1007430074FFF618F618F618F62212047C601712D6
:10075300045F702192F01204567019501720F014A0
:10076300080808090909E7F61819E7F61819E7F65A
:100773001819E7F62212045660E6E869701F0808A4
:10078300E62480F608E436F618547FB47F0CE6546A
:10079300806007F6E418F618F622181822E9C6CC8A
:1007A30008C6CD08C6CE08C6CFC0E0E8C0E0EAC0A0
:1007B300E0EBC0E009E9F809E7FA09E7FBE6F91815
:1007C300E6F8C3EC98ED99EE9AEBC2E7F5F0EFC2C9
:1007D300E795F0500E600CEBCFFBEACEFAE9CDF9CA
:1007E300E8CCF8EAA2E7D2E7FAEB33FB13F5F0EE35
:1007F300A2E7D2E7FEEF33FFC5F013A2E730E6012D
:10080300B313C5F0C3C0E0C0F07F00C39BFB605EC1
:100813009418600F401D14601AD0E023F9D0E0F85B
:100823000208FB8AF0E9486003D2F0E4AFF0FAF97A
:10083300F8803BEB30E40D89F0EA6003D2F0E4AFDB
:10084300F0F9CAF8EB30E30D88F0EF6002D2F0AFB5
:10085300F0E4CAC9F8EB54076014FBC3EA13FAE9DE
:1008630013F9E813F8EF135002D2E0FFDBEDD0E009
:10087300C0E030E739C3E49FFFF5F0EC98FC42F0A9
:10088300ED99FD42F0EE9AFE42F0D0E0F9D0E0F8A7
:10089300E5F0607AE923F9EE20E742D8028067C3E6
:1008A300EF33FFEC33FCED33FDEE33FE80EAEC284F
:1008B300FCED39FDEE3AFED0E023F9D0E0F840023A
:1008C300801BC3EE13FEED13FDEC13FCEF1350027C
:1008D300D2E0FF08B800067F7F74FF802EEF33500D
:1008E300178CF020F00260100CBC000C0DBD00084A
:1008F3000EBE000408E860DFE933E813FFEE2313BC
:10090300FE4F4D4C8008E95480FFE4FEFDFCEE33BE
:10091300EF33F47004FCFD7E80D0E0FBD0E0FAD02E
:10092300E0F8D0E0CFC618CEC618CDC618CCC6F9AD
:100933002212049070041818182212049F700D7468
:10094300FFF61819F61819F61819F622E7548066F7
:10095300F6120456700F12045F70F014F608F608CE
:10096300F608F680D112045F700CF608F60876805C
:1009730008E6447F80EC12047F700C12046B60BFA6
:10098300E65480F6E480BB12046B700519191980D4
:10099300A5E869700C763F18768018F618F6E8F922
:1009A30022E6CDC0E018ECC0E0E633CD33CDD3135F
:1009B300F6E719FCE7191933CC33C3947F400ECD06
:1009C3009D502408E65480F6E418F6800FF4043DA5
:1009D30014501408E6447FF6187680E418F618F6E7
:1009E300D0E0FCD0E0FD22CCD313CCFD18E4C6CB81
:1009F300C0E018E4C6CAC0E00808ED08C633E61331
:100A0300F618E433C675F003C3CA97CA09CB97CB6C
:100A1300199C40047D08802EBD0003020ADD16B632
:100A2300FF050606081618C3CA33CACB33CB33CA2D
:100A330027CA09CB37CB193CC37D08803E187D08F4
:100A430020E75CC633C6CA33CACB33CB33DDF1D51B
:100A5300F0EB30E77BCA97CA09CB974ACB199C4086
:100A63006F4B7025E620E0218066187D08C3CA9786
:100A7300CA09CB97CB199CD3C633C6CA33CACB3367
:100A8300CB3350C9DDE7D5F0E1D3E4C636C608C69B
:100A930036C608C636C608C636C61818188031C307
:100AA300CA97CA09CB97CB199CB34097C633C6CA1A
:100AB30033CACB33CB33DD34D5F02EC6A2E0C640E8
:100AC300C8CA27CA09CB37194A70BECB3CB480B910
:100AD3000808E63308E633601F181818D0E0FAD088
:100AE300E0FBD0E0FCD0E0FD22187D08CA27CA094C
:100AF300CB37CB193CD3808013F618E4B67F11F6BD
:100B030018B6FF0EF618C60470D20808768080CA9D
:100B1300F618F618F680C5E4CFC0E0E4CEC0E0E4F2
:100B2300CDC0E0E4CCC0E075F020E626F608E6335D
:100B3300F608E633F608E633F6181818EC33FCED3E
:100B430033FDEE33FEEF33FFC3EC9709ED9709EE68
:100B53009709EF97191919400FFFEC97FC09ED97C7
:100B6300FD09EE97FE191906D5F0BFECF709EDF76D
:100B730009EEF709EFF7191919D0E0FCD0E0FDD021
:100B8300E0FED0E0FF22181818E4C396F608E496B6
:100B9300F608E496F608E496F6226016080808C6F6
:100BA300C313C618C613C618C613C618C613C6D5AC
:100BB300E0EA22E627F60809E637F60809E637F6FB
:100BC3000809E637F622E026F608A3E036F608A37E
:100BD300E036F608A3E036F622E0F608A3E0F608CE
:100BE300A3E0F608A3E0F622E6F008A3E6F008A3E4
:100BF300E6F008A3E6F022E0FAA3E0FBA3E0FCA3FF
:100C0300E0FD22E0F8A3E0F9A3E0FAA3E0FB22E889
:100C1300F0A3E9F0A3EAF0A3EBF022CAC0E0E6F008
:100C2300A308DAFAD0E0FA22CAC0E0E0A3C582CC76
:100C3300C582C583CDC583F0A3C582CCC582C583D8
:100C4300CDC583DAE6D0E0CA22C3E498F8E499F983
:100C5300120C8D8026C3E49AFAE49BFBE920E7E9B2
:100C6300120C8DE498F8E499F922C3E498F8E49916
:100C7300F9120C8DE498F8E499F9C3E49AFAE49B29
:100C8300FB22EB20E7CFE920E7E0B90010BB000827
:100C9300E88AF084F8AAF022E4FBC8FA22EB702277
:100CA3007B10C833C8C933C9335007C39AC3DBF2B7
:100CB30080069A50012ADBEAC833F4C8C933F4C961
:100CC300FA2275F008E4C833C8C933C933C99AC9CD
:100CD3009B5004C92AC93BD5F0ECFBC833F4C8E4E4
:100CE300C9FA22700422600D18C6C333C608C6337E
:100CF300C6D5E0F41822251010AF08F510400C15E6
:100D0300118008F51040021511D2AF2200C0D02582
:100D13001010AF08F510500C05118008F5105002A3
:100D23000511D2AFD0D0222510F58210AF08F510EF
:100D3300400C15118008F51040021511D2AF851132
:100D43008322C5822510C582C583351110AF07F5EF
:100D5300118582108007F511858210D2AFC58322D9
:100D63002510F582E43511F583222510F8E43511B9
:100D7300F9222510FAE43511FB222510FCE4351184
:100D8300FD22E4732510C582C0E0E51134FFC5835D
:100D9300C0E0E510C3958224F910AF08858311855F
:100DA30082108008858311858210D2AFCEF0A3E52F
:100DB30020F0A37808E608F0A3DEFAEFF0A3E581BC
:100DC30024FBF8E608F0A3E608F0A30808E608F019
:100DD300A3E608F0A315811581D0E0FED0E0F81555
:100DE300811581E8C0E0EEC0E02285118385108281
:100DF300E0A3FEE0A3F5207808E0A3F608DFFAE01D
:100E0300A3FFE0A3C0E0E0A3C0E0E0A3C0E0E0A351
:100E1300C0E010AF08858210858311800885821099
:100E2300858311D2AFD083D08222740280027401F1
:100E3300C0E0F404120D2AD0E0120C1E22740480C8
:100E43000474028000CCC0E0EDC0E0E510C39CCC8C
:100E5300AD1150011D10AF068C108D1180068C1042
:100E63008D11D2AF120C2BD0E0FDD0E0FC22D08349
:100E7300D082E9C0E0E493A3C386F0C5F095F0F90E
:100E830008E493A386F0C5F095F0700BE493A3C335
:100E9300994005E9048002A3E475F002A42582F5D4
:100EA30082E5F03583F583D0E0F9E493A3C0E0E471
:100EB30093C0E022C082C083EA2402F8E43BF988AD
:100EC300828983E090F708F0EA243612110990F141
:100ED300FFF08A828B83E090DF00F08A828B83A30A
:100EE300E090DF01F088828983E090DF021210E056
:100EF300E090DF031210E0A3E090DF041210F1E0B2
:100F030090DF051210F1A3E090DF061210F7E090D6
:100F1300DF071210F7A3E090DF08121103E090DF60
:100F230009121103A3E090DF0AF0EA240B1211095E
:100F330090DF0BF0EA240C12110990DF0CF0EA2485
:100F43000D12110990DF0DF0EA240E12110990DF42
:100F53000EF0EA240F12110990DF0FF0EA241012A9
:100F6300110990DF10F0EA241112110990DF11F03A
:100F7300EA241212110990DF12F0EA241312110964
:100F830090DF13F0EA241412110990DF14F0EA241D
:100F93001512110990DF15F0EA241612110990DFDA
:100FA30016F0EA241712110990DF17F0EA24181239
:100FB300110990DF18F0EA241912110990DF19F0D2
:100FC300EA241A12110990DF1AF0EA241B121109FC
:100FD30090DF1BF0EA241C12110990DF1CF0EA24B5
:100FE3001D12110990DF1DF0EA241E12110990DF72
:100FF3001EF0EA241F12110990DF1FF0EA242012C9
:10100300110990DF23F0EA242112110990DF24F063
:10101300EA242212110990DF25F0EA242312110990
:1010230090DF27F0EA242412110990DF28F0EA2444
:101033002512110990DF29F0EA242612110990DF05
:101043002AF0EA242712110990DF2BF0EA24281250
:10105300110990DF2CF0EA242912110990DF2DF0F9
:10106300EA242A12110990DF2EF0EA242B12110927
:1010730090DF2FF0EA242C12110990DF30F0EA24DC
:101083002D12110990DF31F0EA242E12110990DF9D
:1010930036F0EA242F12110990DF37F0EA243012D8
:1010A300110990DF38F0EA243112110990DF39F089
:1010B300EA243212110990DF3AF0EA2433121109BB
:1010C30090DF3BF0EA243412110990DF3CF0EA246C
:1010D3003512110990DF3DF0D083D082221210E443
:1010E300221210E822F08A828B83A3A3A322121078
:1010F300E4A3A3221210FB221210E8A3A3A3A322AA
:101103001210FBA3A322F582E43BF583E022C08205
:10111300C08390F306E054F0F090F3057413F07A73
:101123000074F2F87410697023E890F2FFF0EAA3F8
:10113300F0A374DFF0A374D9F0A37420F090F70840
:10114300E090F304F090F3067440803674206970E5
:101153003290F2FF74DFF0A374D9F0E8A3F0EAA3AE
:10116300F090F708E07B00240250010BEB448090E1
:10117300F303F090F708E0240290F304F090F306F1
:101183007410F074F2F5D574FFF5D4D083D08222B5
:10119300C082C083D2F0A28130F001B3E433F9A25C
:1011A300E05008740AA2815010790090F307E4F02C
:1011B300A2819281D083D082221470E990F307E058
:1011C30070077401F0790180E7790080E3C082C081
:1011D3008374F8120CF953FEFB53FFFE53F4FB53D5
:1011E300F5FE53F6FB53F7FE53F7BF53F77F851016
:1011F300828511837476F07401120D63E4F0740236
:10120300120D63740CF07403120D637421F07404F3
:10121300120D6374A0F07405120D637407F01412B9
:101223000D637434F07407120D637401F07908AA26
:1012330010AB111214097C867DF77A867BF71212A4
:101243004E7408120D0FD083D08222C082C0838CCB
:10125300828D837900121266AA82AB8379011212FE
:101263006680E374F6120D8774CE120CF9EAFEEB76
:10127300FF8510828511837476F07401120D63E487
:10128300F0E970047480800274C0C0E07402120D2F
:1012930063D0E0F07903AA10AB11121409750900A9
:1012A3008510828511837476F07401120D63744086
:1012B300F075080280061214BF1212F1A809121465
:1012C3009EF96006E8C3941040ECE509C3941050FE
:1012D3000A79201214BF1212F180EFA908AA10ABE9
:1012E300111214097432120D0F7F03020DEDA808B9
:1012F300851082851183E58228F582E43583F583A1
:10130300E9F00508050922120D0F7F01020DED74A6
:10131300F8120D8774F6120CF9EAFEEBFF890885C3
:1013230010828511837476F07401120D63E4F0E981
:10133300C3944074025007120D6374808005120D2C
:101343006374C0F0743F55084440C0E07403120D49
:1013530063D0E0F07904AA10AB111214098510824E
:101363008511837476F07401120D637440F08E82DC
:101373008F83E0C0E07402120D63D0E01213EEE03D
:10138300C0E07403120D63D0E01213EEA3E0C0E0DB
:101393007404120D63D0E01213EEA3A3E0C0E07453
:1013A30005120D63D0E01213F5E0C0E07406120DD0
:1013B30063D0E01213F5A3E0C0E07407120D63D00D
:1013C300E0121403E0C0E07408120D63D0E01214BD
:1013D30003A3E0C0E07409120D63D0E0F0790AAA18
:1013E30010AB11121409740A02130AF08E828F8350
:1013F300A3221213F922F08E828F83A3A3A3A32225
:101403001213F9A3A32274F5120D87EAFEEBFF89E9
:101413000B750A00A29250FCA2A050F843FE04C22E
:101423009212154D79001214A8802F43FE04C29224
:1014330079011214A812154DE508C333F5081509EF
:10144300E509702779001214A853FEFB79011214E1
:10145300A8D3309201B35009050AE50AC3950B508E
:101463001DA80A12149EF50875090879001214A81C
:1014730012154DE508A2E750B253FEFB80B2A292CB
:1014830040FCA2A050F879001214A853FEFB1215D9
:101493004D79011214A87F04020DEDEE28F582E4C4
:1014A3003FF583E022EEC0E0E9700743FF01C2A0ED
:1014B300800353FFFE12154DD0E0FE22749F29C313
:1014C300941A401874BF29C3941A401074E029C3B6
:1014D3009404400874DB29C3941B5005748029F9D4
:1014E30022E924EF605E24FE605D24EF602F24E494
:1014F300603424E5603324FE603224FE603124BC72
:10150300602124FC601A24E2603714602E24EE600C
:101513002D24F3602314601A24EE601922798222A9
:1015230079DF22798122798022798A22795422797A
:101533005A22799D22798C22798F22799C22798B68
:1015430022798E227920227930227801E8F974FFFA
:1015530029F80470F722E9600B43C640E5BEA2E513
:1015630050FA800D53BEFBE5BEA2E650FA0053C607
:101573008043BE042274F1120D87E96059FC8C0884
:1015830075090074077808120CE6E5093395E0F550
:101593000AF50BEC75F03BA4FCA8F0E4288C0CF5E1
:1015A3000D3395E0F50EF50F7808790C120BB6E5BF
:1015B300C654037808120B9D85080C85090D850A0E
:1015C3000E850B0F90F7877808120BC9E50C450DB4
:1015D300450E450F70E27F08020DED74F1120D8781
:1015E30074DE120CF9851082851183EAF0A3EBF007
:1015F300ECFEEDFF90F803E06004C2908002D2900D
:10160300A2E0B3E433F0121193E960487431120D90
:1016130063120E407C8B7DF77406120D75122F2F0B
:101623007404120D0F90DF3BE0F50875090078088C
:10163300120E2D7C977DF77414120D63AA82AB836F
:10164300122F2F7402120D0FAC82AD837402120D90
:101653007512124E90DF3BE06411700675E104755C
:10166300E1024386405386FB750800750900750A3D
:1016730000750B007C007D00E586A2E2402E850804
:101683000C85090D850A0E850B0F90F80578081255
:101693000BC97431120D63780C1203205003021727
:1016A3002890F72AE060D17A01021730E5C1C0E043
:1016B30012173CD0E0F00CEC70010DC39404ED94D0
:1016C3000040B5851082851183121998A3A3E02CDD
:1016D300F8A3E03DF9E82402FAE439FBC3EE9AEFFC
:1016E3009B5015EEFAEFFB800FE5C1C0E012173CEB
:1016F300D0E0F00CEC70010DC3EC9AED9B502CE59F
:1017030086A2E240E485080C85090D850A0E850B47
:101713000F90F8057808120BC97431120D63780C19
:1017230012032050DA7AFF7BFF80047A007B007477
:1017330022120D0F7F08020DED851082851183E0C3
:101743002CF8A3E03D8882F5832274F1120D87748F
:10175300DC120CF9851082851183EAF0A3EBF0A368
:10176300ECF0A3EDF0750800750900750A00750B20
:10177300008073121193E9604B90F1FFE0F50C7553
:101783000D00780C120E2D7CA77DF77406120D75D3
:10179300122F2F7402120D0F90DF3BE0F50C780C23
:1017A300120E2D7C977DF77416120D63AA82AB83FC
:1017B300122F2F7402120D0FAC82AD837404120D1D
:1017C3007512124E90F729E060A9E4F090F80978B9
:1017D3000C120BDC851082851183780C12032040D8
:1017E30005793212157885080C85090D850A0E8551
:1017F3000B0F90F8057808120BC9851082851183A9
:10180300780C120330400843D60175E10380B574A8
:1018130024021734C082C083120EB790F1FFE02474
:10182300F0600624F0600C80187910121111121860
:1018330049800E792012111112184943D60175E11E
:1018430002D083D08222439A01759110D2AF22D263
:101853009043FE0153F4FED29343FE0853F4F7532F
:10186300FDFD79001215591211D0121E15121AAF6F
:10187300790090F897121998120D85E9F508805FA1
:1018830090F72AE4F07A007BF2A9088E828F83A373
:10189300A3A3A3A3A3A3A3A3121998120D85E9F5E8
:1018A3000875D60175E10290F72BE02401F0A3E05F
:1018B3003400F090F72B120E447CE67DF77A097B17
:1018C300F7122F2F7402120D0F7CF47DF77A197B18
:1018D300F7122F2F7C197DF77A097BF712124EE549
:1018E3000875F00BA4F8A9F0749628FE74F839FF74
:1018F30090F80D120E407C007D047A087BF31215DC
:10190300DE7404120D0F8A0A8B0B780A120E71FF14
:10191300FF02E21890191D19831890F308E0F912D9
:1019230019DD8A0A8B0B780A120E2D7CB07DF77AAB
:10193300097BF7122F2F7402120D0FA908121B46F1
:101943008A0A8B0B780A120E2D7CBA7DF77A197BE3
:10195300F7122F2F7402120D0F7C197DF77A097B72
:10196300F712124E7A087BF3121A61E960147A08AF
:101973007BF3A9088E828F83A3A3A3A3A3A3A302AC
:1019830018787CD57DF77AC47BF70218DFA9088E17
:10199300828F8380E5E0F8A3E0F583888222C0E0AC
:1019A300C0D0C082C08353E9EF539BFC90F804E09E
:1019B3006004C2938002D293A2E0B3E433F090F1C7
:1019C300FFE06420700590F72A800390F7297401E3
:1019D300F0D083D082D0D0D0E032E914601A146002
:1019E3001C14601E146020146022146024146026EA
:1019F30014602814602A802D7A117BF8227A187BD0
:101A0300F8227A237BF8227A2D7BF8227A377BF827
:101A1300227A417BF8227A4A7BF8227A537BF82296
:101A23007A577BF8227A5C7BF822C082C08375BC2C
:101A33000075BC00780079008010EA28F582EB3944
:101A4300F583E0F5BD08E8700109C3E89CE99D4012
:101A5300E9E5BDF9E5BCFAE9FBD083D0822274F550
:101A6300120D87EAFEEBFFEE2402F508E43FF509C9
:101A7300850882F583E02404FCA3E03400FD121AF8
:101A83002D850882850983E0F8A3E0F9EE28F58225
:101A9300EF39F583A3A3A3A3E06A7003A3E06B70FC
:101AA300047901800279007F04020DED53F3FD53A5
:101AB300FDFD438F02E5F154FE4402F5F143F33C8F
:101AC30075C222E5C554E0440BF5C543868053C473
:101AD300FE43C40253C4FB53C4F753C4EF53C4DFE0
:101AE30053C4BF53C5DF2274F5120D878A088B09CF
:101AF300ECFEEDFF5386FD121A2D8A0A8B0B7A003A
:101B03007B00801BE5082AF582E5093BF583E0F5B8
:101B1300C1E586A2E150FA5386FD0AEA70010BC3C0
:101B2300EA9EEB9F40DEE50AF5C1E586A2E150FAA5
:101B33005386FDE50BF5C1E586A2E150FA5386FD18
:101B4300021AAAE9600E14601014601214601414CF
:101B5300601680197A647BF8227A697BF8227A749A
:101B63007BF8227A7A7BF8227A847BF8227A8E7B3E
:101B7300F82274F7120D87EAFE75081075090078CC
:101B830008120E2D121B46EAFCEBFD7A2D7BF71291
:101B93002F9B7402120D0F7808120E2DEEF9121BF3
:101BA30046EAFCEBFD7A3D7BF7122F9B7402120D84
:101BB3000F021C7C74F8120D87EAFE121B75EEF9F6
:101BC3007F01020DEDEEC0E07A01121BB7D0E0FEFB
:101BD30022222222C082C08374FC120CF985108257
:101BE3008511837402021C9D74F8120D87E9FE8A25
:101BF300828B83E064017002A3E0700A121BD77A20
:101C030002EEF9121BB780B8C082C08374FC120CB9
:101C1300F98510828511837404021C9D74F7120DDB
:101C230087E9FE121DF9120E710100047A1C771C5C
:101C33007A1C3B1C7A1C701C8A828B83A3A3A3A3EC
:101C43007C4D7DF77438120C2B90F78504F07A4D98
:101C53007BF7121817121C0B90F783E064107004C3
:101C63007A0380027A04EEF9121BB7800A90F78593
:101C7300E4F08003121BEB800B7C3D7DF77A2D7B18
:101C8300F712124E7F02020DEDC082C08374FC1264
:101C93000CF98510828511837407F0A3E4F07402B4
:101CA300120D63E4F0A3F07C04FDAA10AB11121A29
:101CB300EA7404120D0FD083D0822274F5120D87BB
:101CC3008908EAFEEBFF8E828F83E0F50AA3E0F535
:101CD3000B780A120E71010005451D421D451D3D7D
:101CE3001D451D451DEA1C780079008015E0C0E004
:101CF300740028F58274F239F583D0E0F008E870B7
:101D03000109EE28FAEF39FBEA2404FA50010B8E9D
:101D1300828F83A3A3E024FCFCA3E034FFFDC3E88C
:101D23009CE99D8A828B8340C4120BFA12174DEEF5
:101D3300FAEFFB121C8CA9088008121C1F800312E7
:101D43001BEB7F04020DEDC082C083758200758397
:101D5300FF120D458510827406F0A3E4F090F70896
:101D6300E079002402F85001097402120D63E8F0CF
:101D7300A3E9F0780079008027EA28F582EB39F5AA
:101D830083E0C0E0851082851183E58228F582E532
:101D93008339F583A3A3A3A3D0E0F008E870010976
:101DA3007402120D63E0FCA3E0FDC3E89CE99D40CF
:101DB300C87402120D63E02404FCA3E03400FDAAFE
:101DC30010AB11121AEA758200758301120D4502D8
:101DD3001CB974F7120D87121DF9120E710100025E
:101DE300F61DEB1DF61DF31D75E105121BEB8003BC
:101DF300121C1F021C878A828B83E0F508A3E0F57F
:101E030009780822EEC0E0E9FE121D4AEEF9D0E09F
:101E1300FE2274F7120D8774A2120CF990F8CD7498
:101E23002E120D7D7430120C2B90F8FDAC10AD11F9
:101E33007420120C2B90F91D7420120D7D740E1258
:101E43000C2B7E00EE33333354F82408F9EEF508F7
:101E530075090074037808120CE6742E120D63E5FD
:101E6300822508FAE5833509FB1213120EEEC3949B
:101E73000640D18510828511837401F0120D6374BD
:101E830002F0120D637403F07C2B7DF9120D63AA2B
:101E930082AB83122F9B7410120D637404F07411C0
:101EA300120D637405F07412120D637406F074134B
:101EB300120D637420F090DF36E06481700C121F02
:101EC30014120E2D7C397DF9800FE0640170171216
:101ED3001F14120E2D7C477DF97422120D75122FDB
:101EE3002F7402120D0F7420120D7D7413120D63E3
:101EF300AA82AB83122F9B7410120D63AC82AD8345
:101F0300AA10AB1112124E745E120D0F7F02020D56
:101F1300EDA3E0F50875090078082274F1120D8726
:101F230074FD120CF97402120D63E9F08A088B092F
:101F33008C0A8D0B7414120D63E0FEA3E0FF851071
:101F430082851183E4F0A3F0EE2403FAE43FFB8ED1
:101F5300828F83A3AC82AD8390F98A780C120BDC59
:101F63007808790C1204AE70188E828F837469F02E
:101F73008C828D83746EF08E828F83A3A3746680AC
:101F83001F780879081204AE601A8E828F83746EEC
:101F9300F08C828D837461F08E828F83A3A3746E21
:101FA300F00223B190F98E780C120BDC7808790CCF
:101FB3001204DA500302205A90F992780C120BDCC7
:101FC3007808790C1204AE60030220AE7416120D69
:101FD30063E070030220F0851082851183C082C004
:101FE300837412120D63122DDDD083D0821223EC81
:101FF300502E851082851183C3E094FCA3E094FFE7
:10200300A2D265D03340197402120D63E4122EBFBD
:10201300122DDD7412120D63C3E098F0A3E099F062
:102023007412120D631224237417120D63E07003EC
:102033000220ED7416120D63E40220EF90F99678F6
:102043000C120BDC7808790C120934851082851187
:1020530083E0240A122ED990F99A780C120BDC78BB
:1020630008790C1204DA40D490F99E780C120BDC38
:102073007808790C1204DA4003021FCF90F99E7896
:102083000C120BDC7808790C120934122ED080D88C
:1020930090F996780C120BDC7808790C120575858B
:1020A3001082851183E024F612242690F9A2780C7D
:1020B300120BDC7808790C12052940D490F98E783C
:1020C3000C120BDC7808790C1205294003021FCF90
:1020D30090F99E780C120BDC7808790C1205758543
:1020E300108285118312242380D27401F0740212AA
:1020F3000D63E060047A00807F1223F8507E8E82A5
:102103008F837430F0ECFEEDFF7412120D63E0FC6C
:10211300A3E0FDEC4D70087417120D63E0600B8EA5
:10212300828F83742EF0A30EAF837A007B0080111D
:102133008E828F83743012241C7412120D63122446
:1021430023EA24FF1AEB34FFFB85108285118312E7
:1021530023E0500B7412120D63122E034970D185C4
:10216300108285118374FFC39CF874FF9DF91223B9
:10217300EC50030222C37A017B0080711223D1FA4F
:10218300E499FB806885080C85090D850A0E850B8B
:102193000F780C1203C7AC0CE50D3395E0F50EF583
:1021A3000F780C12034F7808790C1206F590F99EFC
:1021B300780C120BDC7808790C120575EC122416D6
:1021C300EAF8EBF9E824010AE439FBE849701E74E4
:1021D30012120D63122E034970087417120D63E077
:1021E300600B8E828F83742EF0A30EAF8374121252
:1021F3000D631223E0508E90F9A6780C120BDC7855
:1022030008790C1204DA40030222C37C01EE24FF96
:10221300F8EF34FFF97414120D63E0F508A3E0F549
:102223000988828983E0642E6010E02CF0643A70A0
:10223300077430F07C0180027C00E8FAE9FBEA24B1
:10224300FF18EB34FFF9C3E5089AE5099B40D2EC8C
:10225300A2E0506C7402120D63E0603BEEF8EF8075
:102263000DEC88828983F0E824FF18E934FFF9C371
:10227300E50898E50999501A1223BBE0FC742E6C0B
:1022830070DFE824FEF582E934FFF5831223C8F9F1
:1022930080D5122ED0801E8E828F83A3AE82AF8311
:1022A300EEF8EF80061223BB1223C8F9C3E50898A2
:1022B300E5099940F07414120D63122E127431F073
:1022C3007416120D63E07005801C1EAF83EE24FFAD
:1022D300F582EF34FFF583E0F874306860EC742E18
:1022E3006870031EAF837402120D63E07003022350
:1022F300AD8E828F83F0EE2402E43FF9A3AA82AB72
:10230300831223F88A828B835012742DF00E0EE908
:10231300FF1223D1F8E4991224098007742BF00EDD
:102323000EE9FF7C007D00EE240AFE50010F0CEC49
:1023330070010D1223D8120C85EA1224161223D829
:10234300120C8512240A851082851183E04970DE00
:10235300C3EC9402ED122DB240D4ECFAEDFBC3E4CE
:102363009CF8E49DF9EE28F582EF39F583E0C0E0AF
:10237300C3E49AF8E49BF9EE28F8EF39F9E82CF86E
:10238300E93DF9E824F5F582E934FFF583D0E0F07F
:10239300EC24FF1CED34FFFDC3EC9401ED122DB2D0
:1023A30050BCEE24F6FEEF34FFFFEEFAEFFB7403AE
:1023B300120D0F7F08020DEDE824FFFAE934FFFB4D
:1023C3008A828B8322E088828983F018EB22122E83
:1023D3006BC3E49822122E6B7A0A7B0022C3E09A25
:1023E300A3E09BA2D265D03322C3E098A3E099A2D5
:1023F300D265D03322851082851183C3A3E0122DC9
:10240300B622A3E03400F9851082851183E8F0A396
:10241300E9F02224308E828F83F0A3AE82AF832231
:10242300E024FFF0A3E034FFF02274F1120D87746F
:10243300B2120CF9851082851183122E7F74131248
:102443000D63ECF0A3EDF0740B120D63E4F0A380C5
:1024530020745D120D63122DF37413120D63122E8B
:1024630012120D85740B120D63E02401F0A3E03406
:1024730000F0122E40F9851082851183E02401FAC1
:10248300A3E03400FB851082851183122E7F74250F
:10249300696010E970BB740B120D63122DF3744E57
:1024A3000223B3122E40642570198510828511838F
:1024B300E0240108122405745D120D63122DF379D3
:1024C300258096740A120D63E4F07409120D63E417
:1024D300F07408120D63E4F07405120D63E4F074F4
:1024E3001C120D6D7402120D63122410741A120D56
:1024F300637455F0A374F980197405120D63E070C9
:10250300077405120D63EAF0851082851183E8F0E4
:10251300A3E9122EE0122E3BFA24E060DC24FD60D6
:102523001724F860DC24FE600624FD600F8011741C
:1025330008120D63E00480CF740980F5740A80F1FA
:10254300851082851183122E3B642A705C745F129E
:102553000D63122E3BFAA3E0FB8A828B83E0FCA37C
:10256300E0FD7406120D63ECF0A3EDF0EA2402FA29
:1025730050010B745F120D63122E777406120D63F4
:102583001223FE501F7406120D63122DF3C3E49A37
:10259300FAE49BFB7406120D63122E7F7408120D6E
:1025A30063E004F012240A80427406120D63E4F01F
:1025B300A3802C7406120D63122E0375F00AA4F87F
:1025C300ABF075F00AE9A42BF9E82AF8E439F9E845
:1025D30024D0F8E934FFF97406120D63122EFB12AE
:1025E3002EB8FA74D02AC3940A40C87408120D6333
:1025F300E06007740A120D63E4F0122E40642E703B
:102603007B851082851183E0240108122E08E8F0EF
:10261300A3E9122EB8642A7027745F120D63122E79
:102623004AF988828983E0FEA3E0FFE82402F85098
:102633000109745F120D63122E2A122EFBF08040E3
:102643007E007F00122E40F874D028C3940A5030C5
:10265300EE75F00AA4FEA9F075F00AEFA429FFEEC7
:1026630028F8E43FF9E824D0FEE934FFFF8510821F
:10267300851183E02401F812240580C87EFF7FFFC3
:102683007A00851082851183E02401F8122E08E078
:10269300FBA3E0F5838B82E024B4600824E46006A6
:1026A30024FC70057A0112240A122E40C0E074043F
:1026B300120D63D0E0122EE01224107404120D6385
:1026C300E07003022C5224BB7003022B2724FE70FC
:1026D30003022B0C24EF700302289124F5700302EC
:1026E300278F14700302292E147003022B271470F2
:1026F30003022B25147003022B0C24FE7003022902
:102703002E24FB602414700302287514700302281E
:102713009124FD70030227CF24FE70030228912425
:10272300FD7003022885022C5E745F120D63122E66
:102733005FE8FCE9FDE5082402F50850020509EA13
:10274300A2E0740B502F120D63122DDD3395E0FAC6
:102753008C828D83E8FCE9FDEAFEECF0A3EDF0A3A7
:10276300EEF0A3F0745F120D63122E12E508F0A3CE
:10277300E509022474120D63122DDD8C828D831200
:102783002410745F120D63122E2A80E0745F120D01
:1027930063122E4AF5838882E0C0E0741C120D6335
:1027A300D0E0F0745F120D63122E462402F8A3E00A
:1027B3003400F9745F120D63122E2A122410741D53
:1027C300120D63A882A983740D02286B745F120D26
:1027D30063122E5FE5082402FAE43509FB745F12E5
:1027E3000D63122E777402120D63122410E84970E0
:1027F3000C7402120D637466F0A374F9F0122DB019
:1028030050047E107F2775080075090080080508AD
:10281300E508700205097402120D63122DDD88822A
:102823008983A3AA82AB837402120D63122E7F885D
:10283300828983E0600BC3E5089EE509122D95406C
:10284300CD7402120D63122DE1740D120D63122467
:1028530010C3E49508F8E49509F9740D120D63E0CB
:1028630028F8A3E039F97402120D63E8F0A3E90232
:102873002C757409120D63E06008EE4F70047E013D
:102883007F00741A120D637475F0A374F9F0745F0A
:10289300120D63122E517404120D63E064707034D0
:1028A300850882850983122DF3740F120D63122E8E
:1028B300ADE508122DA6120D63122E2A12241074F0
:1028C30016120D637410122EB1A3F07405120D636A
:1028D300E40229A3EAA2E0E5085016122D9C120D8A
:1028E30063122E95120C06740F120D63120C1280D4
:1028F30019122DA6120D63122EA8F8A3E0F9E8FA17
:10290300E9FB740F120D63122EAD7404120D63E014
:10291300646F70097416120D63740880A9E06475FE
:10292300709D7416120D63740A809B745F120D639D
:10293300122E51EAA2E0E5085010122D9C120D63ED
:10294300122E957808120BDC8016122DA6120D6339
:10295300122EA8F508A3E0F5093395E0F50AF50B67
:10296300740F120D637808120BEB90F9927808122A
:1029730002FA40217405120D63742DF0740F120DC9
:10298300637808120BDC7808120B8C740F120D633A
:102993007808120BEB7416120D63740A122EB1A38E
:1029A300F0744D120D63A882A9837402120D631291
:1029B3002410740D120D63122E8D120D63120C066A
:1029C300E8494A4B6004D2008009C200EE4F70030D
:1029D300022A827402120D63122E0C120D63122E40
:1029E3008D120D63780C120BDC7416120D637808CC
:1029F300120BDC780C7908120B1A741A120D63E0AF
:102A03002508F8A3E035098882F583E0C0E0740265
:102A1300120D63122E12D0E0F0740F120D63780CB6
:102A2300120BDC7416120D637808120BDC780C7928
:102A330008120B1A740F120D63780C120BEB740F40
:102A4300120D63120C06E8494A4B7087122DB050E1
:102A53002E740A120D63E060267405120D63E060A4
:102A630004D2F08002C2F07406120D63122DCF80DF
:102A73000E7402120D63122E85120D63122E23742F
:102A830002120D63122DE1744D120D63C082C083D7
:102A93007402120D63122DF3D083D082E582C39AA0
:102AA300FAE5839BFBC3EA9EEB122D9540C37409A1
:102AB300120D63E07003022C76A2004003022C7611
:102AC3007404120D63E064786005E064587010E0EC
:102AD30088828983F0E824FF18E934FFF98017E03E
:102AE300646F6003022C767402120D63122E3B6432
:102AF300307003022C767402120D63122E85120DB0
:102B030063122E127430022C757415120D63740146
:102B1300F07404120D63E024FEF0EE4F700D7E019D
:102B23008010E4F07415120D63E4F0122DB050041C
:102B33007E067F00745F120D63122E51850882F5A5
:102B430083780C120BDCE508122D9C120D63122EF8
:102B53002A122E8D120D63780C120BEB90F99278DA
:102B630008120BDC780C790812052950227405121F
:102B73000D63742DF0740F120D637808120BDCE5EE
:102B83000BB2E7F50B740F120D637808120BEB749D
:102B930006120D63741C120D6D8909E028F8A3E079
:102BA3003509F97402120D631224107409120D63AE
:102BB300E0F5087808120E317416120D63E0F5087B
:102BC3007808120E317404120D63120E448E088FAE
:102BD300097808120E2D740A120D63E0F9741512A8
:102BE3000D63120BFA121F1E7406120D0F740D12D1
:102BF3000D63122E7F740A120D63E0607674051262
:102C03000D63E06004D2F08002C2F07406120D631B
:102C1300122DCF740D120D63C082C0837402120D86
:102C230063122DDDD083D082E0C398F8A3E099F935
:102C3300C3E89EE9122D95503A7402120D63122EC9
:102C43000C120D63122E85120D63122E2380C48580
:102C53001082851183122DEA1224097402120D6366
:102C63007486F0A374F9F0740D120D637489F0A3E4
:102C730074F9F0740D120D63C082C0837402120DD7
:102C830063122DDDD083D082E0C398FEA3E099FFC9
:102C93007406120D63C3E09EA3E0122D95500875D0
:102CA300080075090080297405120D63E06004D2E1
:102CB300F08002C2F07406120D63E0C39EF8A3E035
:102CC3009FF9A2F0E433FAE89AF508E99400F509CC
:102CD3007408120D63E070208019745D120D631285
:102CE3002DF9120D63122E12120D85740B120D6342
:102CF300122ED6122DBE50E27405120D63E06056FB
:102D0300745D120D63122DF37405120D63E0F974F3
:102D130013120D63122E12120D858032745D120D83
:102D230063122DF37402120D63122E46F9741312FB
:102D33000D63122E12120D857402120D63E024012D
:102D4300F8A3E03400F97402120D63122410740B1B
:102D5300120D63122ED6EE24FF1EEF34FFFFC312B3
:102D63002DB250B87408120D63E07003022475127B
:102D73002DBE5003022475745D120D63122DF912DA
:102D83000D63122E12120D85740B120D63122ED6C3
:102D930080DD9FA2D265D033222404F8E43509F9FB
:102DA300745F222402F8E43509F9745F22C3EF1239
:102DB3002DB6229400A2D265D03322E50824FFF574
:102DC30008E50934FFF509C3122DB622A2F0E43356
:102DD300F8E098FEA3E09400FF22122E7122122D38
:102DE300E522122DEAF922E024FFF8A3E034FF22C2
:102DF300E0FAA3E0FB22E0FAA3E0FB7920741322BC
:102E0300122E71E822122EEF22122DE574022212E5
:102E13002E1622122E1A22E0F8A3E0F583888222CE
:102E2300122E167430F022122E2E22122E3222E08F
:102E3300FAA3E0F5838A8222122E2EE022851082E5
:102E4300851183122EC722122EC7F8A3E022122E59
:102E53005522122ECBF508A3E0F50922122E558533
:102E63000882F583122E7122851082851183E0F882
:102E7300A3E0F922E0FCA3E0F5838C82EAF0A3EB64
:102E8300F022E8F0A3E9F0740222E8F0A3E9F07479
:102E93000F22122E9922122E32E8F0A3E9F08508B0
:102EA3008285098322122E99E022EAF0A3EBF0A394
:102EB300E4F0A3F022122EBF122EC722F085108257
:102EC30085118322122ECB22122E1AE02285108224
:102ED300851183E02401F0A3E03400F022122EE4F4
:102EE30022122EBFE02401F8122EEF22A3E03400B9
:102EF300F985108285118322E8F0A3E9122EE4E814
:102F0300F0A3E922C082C0838A828B83122F92E9C5
:102F1300F08A828B83E02401FCA3E03400FD8A82E3
:102F23008B83ECF0A3EDF0D083D0822274F7120DE3
:102F33008774FC120CF97402120D63EAF0A3EBF030
:102F4300ECFAEDFB740D120D6D851082851183E88B
:102F5300F0A3E9F0A810A911880889097808120ECE
:102F63002D7404120D6D880889097808120E2D7CC2
:102F7300077D2F12242D7404120D0F7402120D639A
:102F8300122F92E4F07404120D0F7F02020DEDE094
:102F9300F8A3E0F58388822274F8120D87EAF8EB30
:102FA300F98C828D83E0FEA3AC82AD838A828B830E
:102FB300F0A3AA82AB8370E9E8FAE9FB7F01020D73
:012FC300ED20
:04000005000000C730
:00000001FF
